:100000000C9419020C9446020C9446020C9446027D
:100010000C9446020C9446020C9446020C94460240
:100020000C9446020C9446020C9446020C94460230
:100030000C9446020C9446020C9446020C94460220
:100040000C9446020C9446020C9446020C94460210
:100050000C9446020C9446020C9446020C94DC313B
:100060000C9446020C9484270C94CF280C944602DE
:100070000C9446020C9446020C9446020C944602E0
:100080000C9446020C9446020C9446020C944602D0
:100090000C94C4270C940E290C9446020C94561D03
:1000A0000C9446020C9446020C9446020C944602B0
:1000B0000C9446020C9446020C9446020C944602A0
:1000C0000C9446020C9446020C9446020C940328AD
:1000D0000C944D290C9446020C9443280C948C29C2
:1000E0000C9446020F1EA81DA81DA81DA81DA81D22
:1000F000A81DA81D191EA81DA81DA81DA81DA81D66
:10010000A81DA81D191EA81DA81DA81DA81DA81D55
:10011000A81DA81D211EA81DA81DA81DA81DA81D3D
:10012000A81DA81D351EA81DA81DA81DA81DA81D19
:10013000A81DA81D211EA81DA81DA81DA81DA81D1D
:10014000A81DA81DD71DA81DA81DA81DA81DA81D58
:10015000A81DA81DE41DA81DA81DA81DA81DA81D3B
:10016000A81DA81DD01DA81DA81DA81DA81DA81D3F
:10017000A81DA81D651EA81DA81DA81DA81DA81D99
:10018000A81DA81DC41DA81DA81DA81DA81DA81D2B
:10019000A81DA81DED1DA81DA81DA81DA81DA81DF2
:1001A000A81DA81D061EA81DA81DA81DA81DA81DC8
:1001B000A81DA81D061EA81DA81DA81DA81DA81DB8
:1001C000A81DA81D061EA81DA81DA81DA81DA81DA8
:1001D000A81DA81D061EA81DA81DA81DA81DA81D98
:1001E000A81DA81DBB1DA81DA81DA81DA81DA81DD4
:1001F000A81DA81DC01DA81DA81DA81DA81DA81DBF
:10020000A81DA81DBB1DA81DA81DA81DA81DA81DB3
:10021000A81DA81DC01DA81DA81DA81DA81DA81D9E
:10022000A81DA81D401EA81DA81DA81DA81DA81D0D
:10023000A81DA81D7E1DA81DA81DA81DA81DA81DC0
:10024000A81DA81D7E1DA81DA81DA81DA81DA81DB0
:10025000A81DA81D931DA81DA81DA81DA81DA81D8B
:10026000A81DA81D5F1EA81DA81DA81DA81DA81DAE
:10027000A81DA81D5F1E07634236B79BD8A71A3971
:10028000685618AEBAAB558C1D3CB7CC5763BD6DE4
:10029000EDFD753EF6177231BF000000803F08008B
:1002A0000000BE922449123EABAAAA2ABECDCCCCF5
:1002B0004C3E00000080BEABAAAAAA3E000000008F
:1002C000BF000000803F0000000000084178D3BB61
:1002D0004387D1133D190E3CC3BD4282AD2B3E680E
:1002E000EC8276BED98FE1A93E4C80EFFFBE01C4FF
:1002F000FF7F3F00000000007C3C3E5E2B3D3F2F17
:100300005B5D3B2C2A225C000000210024002700BA
:100310002A002D0030003300010100000401070114
:100320000A0100002200250028002B002E003100C9
:10033000340002010000050108010B01000020004B
:100340002300260029002C002F00320000010000AD
:100350000301060109010505050507050808080848
:10036000020202020A0A080804040404010101014D
:100370000101010103030303030303030407070748
:100380000C0C0C0C0C0C0C0C0202020206060606ED
:10039000060606060B0B0B0B0B0B0B0B01021020BA
:1003A00020080810204010204080020102010804AB
:1003B000020101020408102040808040201008043F
:1003C0000201800402018040201008040201080498
:1003D00002010102040810204080010204081020DC
:1003E00040800000090A02080B0C0D0706030401F7
:1003F00000000000000000000000000000000000FD
:1004000000000000000000000000000000001110CB
:100410000F000000000000000000000000000000CD
:1004200000000000000000002203B808D61BFF2ACD
:100430001B0311241FBECFEFD1E2DEBFCDBF00E012
:100440000CBF15E0A0E0B2E0ECE9F2E700E00BBF82
:1004500002C007900D92A83FB107D9F71BBE1DE05F
:10046000A8EFB5E001C01D92A73BB107E1F714E08A
:10047000C0E3D4E004C02297FE010E943D39C83297
:10048000D107C9F70E94352C0C9441390C94000017
:10049000FB01DC0104C08D910190801921F44150D1
:1004A0005040C8F7881B990B0895FB01DC0102C07E
:1004B00001900D9241505040D8F70895FC01819170
:1004C000861721F08823D9F7992708953197CF010E
:1004D0000895FB01DC0101900D920020E1F70895E1
:1004E000FB01DC014150504048F001900D9200208A
:1004F000C9F701C01D9241505040E0F70895CF93D5
:10050000DF939C01FB0182819381D90113969C9317
:100510008E93129784819581A681B781E9018C839E
:100520009D83AE83BF8380859185A285B3858887AF
:100530009987AA87BB878CEE95E099838883848509
:1005400095859D878C87868597859F878E878089EF
:100550009189998B888B828993899B8B8A8B8489DB
:1005600095899D8B8C8B868997899F8B8E8B808DAF
:10057000918D998F888F828D938D9B8F8A8F848D9B
:100580008C8F858D8D8F868D8E8F878D8F8F80A19F
:1005900088A381A189A3DF91CF910895813091052E
:1005A00039F0892B21F46F5F7F4F09F43FC0089524
:1005B0006F5F7F4FE1F788EF95E064E27DE00E9496
:1005C0007F028AE196E066E47DE00E947F028CE390
:1005D00096E068E67DE00E947F028EE596E06CE39F
:1005E00076E00E946D078BE996E00E9429198EEA59
:1005F00096E045E657E260E070E00E94BB1E84EBA7
:1006000096E049E350E360E070E00E948C238CECBC
:1006100096E041E354ED60E070E00E9482238EEDAD
:1006200096E060E072E00E941C3508958EED96E041
:100630000E945335089580E090E06FEF7FEF0E94B5
:10064000CE02089581E090E06FEF7FEF0E94CE022E
:1006500008958CE396E00E945A2A892B89F08CE356
:1006600096E00E948C2A682F8A3059F08EED96E031
:100670000E94CE348CE396E00E945A2A892B79F7A7
:10068000089588EF95E06EED76E00E94292F8EEDBB
:1006900096E060E072E00E943635DBCFCF92DF92C9
:1006A000EF92FF920F931F93CF93DF9381E40E9409
:1006B000E6328C0182E40E94E632EC0183E40E947F
:1006C000E6327C0184E40E94E6326C0188EF95E01A
:1006D00061E072E00E945D30101611060CF04BC014
:1006E0006BE172E088EF95E00E945D3088EF95E065
:1006F0006DE172E00E945D301C161D06CCF56BE1C9
:1007000072E088EF95E00E945D3088EF95E06DE142
:1007100072E00E945D301E141F043CF56BE172E034
:1007200088EF95E00E945D3088EF95E06DE172E022
:100730000E945D301C141D04ACF46BE172E088EF84
:1007400095E00E945D3088EF95E06FE172E00E94D5
:100750007C30DF91CF911F910F91FF90EF90DF9050
:10076000CF90089569E172E0EACF69E172E0D8CFF5
:1007700069E172E0C6CF69E172E0B4CFCF92DF9257
:10078000EF92FF920F931F9385E40E94E632AA270F
:1007900097FDA095BA2FBC01CD010E945D367B016B
:1007A0008C0188EFC82E85E0D82EC60161E272E088
:1007B0000E945D30C601B801A70122E030E00E942E
:1007C000C931C801B70120E030E040EA5BE30E9494
:1007D00021377B018C01C60169E372E00E945D3024
:1007E000C601B801A70122E030E00E94C931C6016C
:1007F0006FE472E00E945D30C801B70123EE38E378
:100800004EE05EE30E94C235AB01BC01C60122E0AE
:1008100030E00E94C9311F910F91FF90EF90DF905F
:10082000CF9008950F931F930EE516E0C8016BE675
:1008300072E00E947D07C8016DE972E00E947D07A9
:10084000C8016EEA72E00E947D0788EF95E06DEBCB
:1008500072E00E947C301F910F910895EF92FF92F9
:100860000F931F938BE996E00E94FF1908EF15E0A4
:10087000C80163ED72E00E945D3040919B0650918B
:100880009C0660919D0670919E06C80122E030E0B2
:100890000E94C6319DE1E92E92E0F92EC801B70110
:1008A0000E945D3040919F065091A0066091A10684
:1008B0007091A206C80122E030E00E94C631C80152
:1008C000B7010E945D304091A3065091A40660914B
:1008D000A5067091A606C80122E030E00E94C6314C
:1008E000C8016FE172E00E947C301F910F91FF9070
:1008F000EF9008958BE996E060E070E04BE60E948F
:100900003E1B882339F088EF95E061E073E00E9498
:100910007C30089588EF95E060EE72E00E947C30B4
:100920000895AF92BF92CF92DF92EF92FF920F9312
:100930001F93DF93CF93CDB7DEB7A4970FB6F8948C
:10094000DEBF0FBECDBF8CEC96E05E010894A11C0B
:10095000B11CB5010E94BE2508EF15E0C80168E191
:1009600073E00E945D304D895E896F89788DC80182
:1009700022E030E00E94C6313DE1E32E32E0F32E6A
:10098000C801B7010E945D30498D5A8D6B8D7C8DF9
:10099000C80122E030E00E94C631C801B7010E94C0
:1009A0005D304D8D5E8D6F8D78A1C80122E030E005
:1009B0000E94C6312FE1C22E22E0D22EC801B6011C
:1009C0000E947C3084EB96E0B5010E94A524C8010A
:1009D0006AE273E00E945D304D895E896F89788D8F
:1009E000C80122E030E00E94C631C801B7010E9470
:1009F0005D30498D5A8D6B8D7C8DC80122E030E0D1
:100A00000E94C631C801B7010E945D304D8D5E8DD8
:100A10006F8D78A1C80122E030E00E94C631C80184
:100A2000B6010E947C30A4960FB6F894DEBF0FBECC
:100A3000CDBFCF91DF911F910F91FF90EF90DF908D
:100A4000CF90BF90AF90089584EB96E00E9441272D
:100A50008823A1F08CEC96E00E947227882339F05D
:100A600088EF95E068E973E00E947C30089588EF94
:100A700095E068E673E00E947C30089588EF95E089
:100A80006FE373E00E947C3008958F929F92AF9243
:100A9000BF92CF92DF92EF92FF920F931F93DF935B
:100AA000CF93CDB7DEB7A8970FB6F894DEBF0FBED1
:100AB000CDBF0EEA16E0C801BE016B5F7F4F0E94FA
:100AC0009E22898C9A8CAB8CBC8CC801BE016F5F56
:100AD0007F4F0E94CC1F40919105509192056091EB
:100AE000930570919405C980DA80EB80FC80C80181
:100AF000950184010E94141F6B017C0108EF15E031
:100B0000C8016FEC73E00E945D30C801B501A4011B
:100B100022E030E00E94C931C8016FED73E00E940D
:100B20005D3049815A816B817C81C80122E030E0CF
:100B30000E94C931C80162EF73E00E945D30C801B4
:100B4000B701A60122E030E00E94C931A8960FB695
:100B5000F894DEBF0FBECDBFCF91DF911F910F91F3
:100B6000FF90EF90DF90CF90BF90AF909F908F90CD
:100B700008958EEA96E061E070E00E94EF228823FB
:100B800039F088EF95E068E274E00E947C300895C7
:100B900088EF95E062E074E00E947C300895AF92A7
:100BA000BF92CF92DF92EF92FF920F931F938EE34B
:100BB0000E94E6327C018FE30E94E6326C0180E401
:100BC0000E94E6325C0108EF15E0C80164E474E0BD
:100BD0000E945D30C801B7014AE050E00E942B300E
:100BE0004DE1E42E42E0F42EC801B7010E945D30D1
:100BF000C801B6014AE050E00E942B30C801B7019D
:100C00000E945D30C801B5014AE050E00E942B30DF
:100C1000C8016FE172E00E947C301F910F91FF903C
:100C2000EF90DF90CF90BF90AF9008950F931F93F8
:100C3000DF93CF93CDB7DEB7AA970FB6F894DEBF98
:100C40000FBECDBFAE014F5F5F4FDA01E9E5F4E0C3
:100C500089E001900D928150E1F78E01005F1F4FF6
:100C6000C8016BED77E023E10E94050AC8010E94EC
:100C7000DB07882359F188EF95E06DE874E00E9466
:100C80007C30C80163EA74E00E947C300E94243208
:100C9000AB01BC01C8012AE030E00E94D22FC8019C
:100CA0000E94EA0788EF95E06DEA74E00E947C30CC
:100CB000C8010E949607AA960FB6F894DEBF0FBE31
:100CC000CDBFCF91DF911F910F91089588EF95E0EF
:100CD00062E674E00E947C30EBCF88EF95E063EC35
:100CE00074E00E947C308AE196E064ED74E00E943A
:100CF0007C308DE061E00E94DD3388EF95E069EEA5
:100D000074E00E945D30609195057091960588EFC2
:100D100095E04AE050E00E943E308091950561E008
:100D20000E94DD330E9416060E94CF050E944505F1
:100D30000E9491040E942E040E944E030E94BE0352
:100D400068EE73E080E090E00E9459328DE060E050
:100D50000E94DD338091950560E00E94DD33809133
:100D6000950590919605019690939605809395052B
:100D70008E9734F08AE290E09093960580939505E3
:100D800060E177E280E090E00E94593208958DE0C2
:100D900061E00E941B3388E061E00E941B338AE21D
:100DA00061E00E941B338BE261E00E941B338CE206
:100DB00061E00E941B338DE261E00E941B3380E3FF
:100DC00061E00E941B3388EF95E06FE275E00E94BE
:100DD0007C3008950F931F9308EF15E0C80140E0A1
:100DE00051EE60E070E00E94CB298AE196E040E09D
:100DF00051EE60E070E00E94CB298CE396E040E881
:100E000055E260E070E00E94CB29C80165E475E01E
:100E10000E947C301F910F9108950E94EA060E9463
:100E2000C7060E94B9050E9424050E947A040E9408
:100E3000120488EF95E06EE575E00E947C3068EE64
:100E400073E080E090E00E9459320895FC0114AEF6
:100E500013AE1092DA0712AE1092D50785EE96E027
:100E60009093D7078093D6078DE597E09093D907A5
:100E70008093D80715A614A61582148213821282B5
:100E80001182108212A611A610A613A6178216822E
:100E900080E090E0A0E0B0E084A395A3A6A3B7A370
:100EA00080A391A3A2A3B3A3848F958FA68FB78F9E
:100EB000808F918FA28FB38F848B958BA68BB78BEE
:100EC000808B918BA28BB38B84879587A687B787FE
:100ED00080879187A287B3870895EF92FF920F933F
:100EE0001F938C017B010E942607F801F4AEE3AE4C
:100EF0001F910F91FF90EF900895FC0183AD94AD89
:100F00000E947C300895FC011382128288EE93E0E7
:100F1000A0E0B0E084839583A683B7838CEA95E054
:100F200091838083128E118E14860895FC018CEAC1
:100F300095E0918380830895DF93CF930F92CDB78F
:100F4000DEB7FC016983A081B18112962D913C919D
:100F50001397BE016F5F7F4F41E050E0F901199593
:100F60000F90CF91DF910895DC015996ED91FC919E
:100F70005A973097E1F023893489458956898285CB
:100F80009385A485B585281B390B4A0B5B0B203054
:100F9000B0E83B07B0E04B07B0E05B0710F4C901D5
:100FA00008952FEF3FE740E050E0C901089520E0A9
:100FB00030E0C9010895DC015996ED91FC915A97F2
:100FC000309731F08581882309F4089581E00895F0
:100FD00080E00895CF93DF93EC01898D9A8D00977F
:100FE00041F00E94D90E898D9A8D0E94E02C1A8EB4
:100FF000198EDF91CF910895FC01818D928D00971C
:1010000011F00E948A0E0895DF93CF930F92CDB70F
:10101000DEB7FC01818D928D009749F0BE016F5FB4
:101020007F4F41E050E00E94B60F019739F02FEF5B
:101030003FEFC9010F90CF91DF9108958981282F4B
:1010400030E0C9010F90CF91DF910895EF92FF92A8
:101050000F931F93DF93CF930F92CDB7DEB77C0131
:10106000DC0159968D919C915A970097A1F0BE0191
:101070006F5F7F4F41E050E00E94B60F019771F023
:101080000FEF1FEFC8010F90CF91DF911F910F91CC
:10109000FF90EF90089500E010E0F4CF8981082FD1
:1010A00010E0D7015996ED91FC915A9742855385EE
:1010B000648575854150504060407040CF010E946A
:1010C000C10DE0CFCF93DF93EC01E98DFA8D30971E
:1010D00061F013821282CF010E94FE119C01E98D02
:1010E000FA8D82819381892B31F081E090E09B839E
:1010F0008A8320E030E0C901DF91CF910895EF921B
:10110000FF920F931F93CF93DF93EC01162F072FBE
:101110007A011B821A8288EE93E0A0E0B0E08C8313
:101120009D83AE83BF838CEA95E0998388838DE1AC
:1011300090E00E94492C9A8F898F009791F0DC01F2
:10114000812F902F9C01F9018DE101900D9281502A
:10115000E1F7CE010C96B7014CE050E00E9470021E
:10116000188EDF91CF911F910F91FF90EF9008950E
:101170001092E0071092E1071092E4071092E60740
:1011800082E090E0A0E0B0E08093E7079093E8076A
:10119000A093E907B093EA071092FE07109208089F
:1011A000109207088CEB95E0909306088093050851
:1011B00010920A0808952F923F924F925F926F9279
:1011C0007F928F929F92AF92BF92CF92DF92EF92D7
:1011D000FF920F931F93DF93CF93CDB7DEB7C95420
:1011E000D0400FB6F894DEBF0FBECDBF382E292EEB
:1011F000FB012A012A963FAF2EAF2A9784A595A519
:10120000998B888B5CEB652E55E0752E7F866E86FC
:1012100086A58A8B87A58B8B80A991A9A2A9B3A942
:101220008C8B9D8BAE8BBF8B84A995A9A6A9B7A9E2
:10123000888F998FAA8FBB8F80AD91ADA2ADB3ADD2
:101240008C8F9D8FAE8FBF8F84AD88A3FD968191CB
:101250009191A191B19189A39AA3ABA3BCA38191D0
:101260009191A191B1918DA39EA3AFA3B8A78081C5
:1012700091819AA789A71EA61DA67CA66BA618AA6F
:1012800082014EE0C42ED12CCC0EDD1E3BE2A32EFB
:10129000B12CAC0EBD1E4E010894811C911CC801DE
:1012A0006FE270E00E945E029C01009779F0D80125
:1012B0008C918F3209F07DC00F5F1F4FC8016FE224
:1012C00070E00E945E029C01009789F704191509DD
:1012D0002A96EEADFFAD2A9711830083E32DF22D00
:1012E000D60112968D919C9113979383828371827C
:1012F000608214968C911497848315968C9115971F
:10130000858316962D913D914D915C911997268379
:101310003783408751871A962D913D914D915C916D
:101320001D9722873387448755871E962D913D91BF
:101330004D915C91519726873787408B518B529600
:101340008C915297828B53962D913D914D915C914A
:101350005697238B348B458B568B57962D913D9109
:101360004D915C915A97278B308F418F528F5B96AE
:101370008D919C915C97948F838F832D922DC75B69
:10138000DF4F0FB6F894DEBF0FBECDBFCF91DF9118
:101390001F910F91FF90EF90DF90CF90BF90AF9093
:1013A0009F908F907F906F905F904F903F902F9085
:1013B0000895422F401B4D3008F04CE0E42EFF24EE
:1013C000C401B801A7010E947002F401EE0DFF1DD7
:1013D0001082C5010E94D90EC501B601A40121E009
:1013E0000E944E14882349F00E0D1F1DC6010E9455
:1013F000D90EC50156016C0152CFE32DF22D138297
:101400001282718260821582B8CF2F923F924F92E2
:101410005F926F927F929F92AF92BF92CF92DF9234
:10142000EF92FF920F931F93DF93CF93CDB7DEB769
:10143000C657D0400FB6F894DEBF0FBECDBFA82E62
:10144000992E8A01B22EB3E0CB2ED12CCC0EDD1E0C
:10145000C6019E012F5F3F4F0E94DB08E980FA80A2
:10146000E00EF11EF7018081882309F4C5C0AFE3C7
:101470004A2E512C4C0E5D1EF20111821082FCEBA3
:101480006F2EF5E07F2E7EAE6DAEE2E42E2E312C77
:101490002C0E3D1EF10110828885882309F48DC031
:1014A0008250823008F47CC08E01035C1F4FC8015B
:1014B000B601A7012B2D0E944E14882309F47DC08C
:1014C000C6010E94D90EF6E0BF2209F0D9C070E52E
:1014D000C72ED12CCC0EDD1E9E01265A3F4FF201A5
:1014E00080819181F9019383828371826082FE0100
:1014F000EF5BFF4F8081F9018483F1018081F90165
:101500008583FE01ED5BFF4F80819181A281B381D4
:10151000F90186839783A087B187FE01E95BFF4FBE
:1015200080819181A281B381F90182879387A48709
:10153000B587FE01E55BFF4F80819181A281B38178
:10154000F90186879787A08BB18BFE01E15BFF4F86
:101550008081F901828BF60180819181A281B38122
:10156000F901838B948BA58BB68BFE01EC5AFF4F50
:1015700080819181A281B381F901878B908FA18FA6
:10158000B28FFE01E85AFF4F80819181F901948F5B
:10159000838F8A2D992DB901A7010E947F0811C060
:1015A0008E01035C1F4FC80165E078E0A7012B2D79
:1015B0000E944E14882309F086CF8A2D992D0E940F
:1015C00083078A2D992DCA58DF4F0FB6F894DEBFD6
:1015D0000FBECDBFCF91DF911F910F91FF90EF9084
:1015E000DF90CF90BF90AF909F907F906F905F9073
:1015F0004F903F902F9008958D819E819BA38AA349
:101600008CEB95E099A388A38F818CA388858DA30B
:1016100089859A85AB85BC858EA39FA3A8A7B9A70A
:101620008D859E85AF85B8898AA79BA7ACA7BDA7E6
:1016300089899A89AB89BC898EA79FA7A8ABB9ABCA
:101640008D898AAB8E899F89A88DB98D8BAB9CAB18
:10165000ADABBEAB8A8D9B8DAC8DBD8D8FAB98AF86
:10166000A9AFBAAF8E8D9F8D9CAF8BAF8A2D992D70
:10167000BE01605E7F4F43E755E00E947F08A1CF27
:1016800060E5C62ED12CCC0EDD1EF60140815181C5
:1016900062817381C8010E94C10D1ECFFF920F931A
:1016A0001F93CF93DF938B010E942432EB01FF2421
:1016B000FA94FEBC0DB407FEFDCF8EB58F3F71F0DE
:1016C0000E9424326C1B7D0B6017710790F380E041
:1016D000DF91CF911F910F91FF90089581E0DF91ED
:1016E000CF911F910F91FF900895FC01848160E0DC
:1016F0000E94DD330895FC01848161E00E94DD33A6
:101700000895DC016EBDFA0120E030E00DB407FE63
:10171000FDCF80818EBD0DB407FEFDCF81818EBDD2
:101720002E5F3F4F329682E02030380779F70DB4B4
:1017300007FEFDCF8FEF8EBD0DB407FEFDCF8FEFFF
:101740008EBD0DB407FEFDCF8FEF8EBD0DB407FE2D
:10175000FDCF8EB51A968C931A978F71853049F00C
:1017600081E115968C931597CD010E947B0B80E04B
:10177000089581E00895FF920F931F93CF93DF9315
:10178000EC010E9424328B01FF24FA94FEBC0DB4BC
:1017900007FEFDCF8EB58A878F3F99F40E942432D1
:1017A000601B710B6D52714088F38FE08D83CE0109
:1017B0000E947B0B80E0DF91CF911F910F91FF90F2
:1017C00008958E3F19F08DE08D83F1CF81E0F3CF46
:1017D000CF93DF93EC018E81882309F18FEF8EBDCB
:1017E0008F8198859C012F5F3F4F38872F838150D1
:1017F000924070F44FEF0DB407FEFDCF4EBD2F5F4A
:101800003F4FC901019781509240A8F338872F8339
:101810000DB407FEFDCFCE010E947B0B1E82DF912F
:10182000CF910895DF92EF92FF920F931F93CF9382
:10183000DF93EC01D62E79018A010E94E80BCE01DC
:101840000E94750BCE016CE271E00E944E0B8D2D53
:1018500080648EBD0DB407FEFDCF28E130E0D801D5
:10186000C701022E04C0B695A795979587950A944F
:10187000D2F78EBD0DB407FEFDCF285030408FEF5C
:10188000283F380761F7DD20D1F485E98EBD0DB41E
:1018900007FEFDCF90E02FEF2EBD0DB407FEFDCF6C
:1018A0008EB587FD09C08A87DF91CF911F910F9177
:1018B000FF90EF90DF900895915071F7F4CF88E09A
:1018C000D81611F487E8E2CF8FEFE0CFCF92DF9206
:1018D000EF92FF920F931F93CF93DF93EC017A0166
:1018E0008B016901411551056105710579F482E1AA
:1018F0008D83CE010E947B0B80E0DF91CF911F9101
:101900000F91FF90EF90DF90CF9008958B858330FB
:1019100039F029E0EE0CFF1C001F111F2A95D1F7AA
:10192000CE0168E1A80197010E94120C882319F0EA
:1019300084E08D83DECFCE016EEFA6010E94810B85
:101940008823B9F2CE0168E572E00E944E0B88232D
:1019500019F485E18D83CDCFCE016DE020E030E03C
:1019600040E050E00E94120C882319F084E18D833E
:10197000C0CF8FEF8EBD0DB407FEFDCF8EB588238F
:10198000A9F7CE010E947B0B81E0B7CF8F929F9287
:10199000AF92BF92CF92DF92EF92FF920F931F937D
:1019A000CF93DF93EC015A016B0149010115110539
:1019B00009F47FC0C801820F931F81509240E0F468
:1019C0008E81882309F077C0A882B982CA82DB821F
:1019D0008B85833039F069E0AA0CBB1CCC1CDD1C64
:1019E0006A95D1F7CE0161E1A60195010E94120C22
:1019F000882399F083E08D83CE010E947B0B80E0E9
:101A0000DF91CF911F910F91FF90EF90DF90CF90DA
:101A1000BF90AF909F908F900895CE010E94BB0B16
:101A2000882351F318861F8281E08E8320E030E006
:101A30008FEF8EBD28153905A8F4C9014FEF0DB4FD
:101A400007FEFDCF4EBD019688159905C0F3089499
:101A5000811C911C820E931E20953095280D391DF6
:101A600038872F83D801119789F020E030E09FEF6D
:101A70000DB407FEFDCF8EB5F701E20FF31F808393
:101A80009EBD2F5F3F4F2A173B0790F30DB407FE13
:101A9000FDCF8EB5AE0DBF1D8C932F813885200FE5
:101AA000311F38872F8389858823B1F02050324039
:101AB00098F481E0A5CF88819981AA81BB818417A0
:101AC0009507A607B70709F07FCF2F8138858216C3
:101AD000930608F0ADCF78CFCE010E94E80B81E0ED
:101AE0008FCFEF92FF920F931F93790120E030E0A8
:101AF00000E012E00E94C60C1F910F91FF90EF9042
:101B00000895CF93DF93EC01DB0180E090E020E2C9
:101B1000FD01E80FF91F208301968B309105C1F775
:101B200057E040E03991332331F13E3271F088EFD4
:101B300092E0FC0101962491222361F03217C9F74B
:101B400090E0892FDF91CF9108955A30C9F35AE080
:101B500048E0E8CF5417A0F3313290F33F3780F7D5
:101B6000832F81568A3108F43052FD01E40FF11DB4
:101B700030834F5FD7CF90E08C91803211F391E0AA
:101B8000E0CF6F927F928F929F92AF92BF92CF924F
:101B9000DF92EF92FF920F931F93CF93DF93EC01AD
:101BA0005A016B012D81222349F08B899C89AD89D3
:101BB000BE8984179507A607B70780F480E0DF91F8
:101BC000CF911F910F91FF90EF90DF90CF90BF903A
:101BD000AF909F908F907F906F900895223009F47E
:101BE0005CC0A114B104C104D10409F466C02A8503
:101BF0003B854C855D85EB8DFC8D858590E0099658
:101C0000215030404040504039014A01082E04C064
:101C100096948794779467940A94D2F72F5F3F4FF6
:101C20004F4F5F4F0894A108B108C108D108860141
:101C3000750104C016950795F794E7948A95D2F735
:101C40000894A11CB11CC11CD11CE614F7040805A2
:101C5000190548F58F89988DA98DBA8D8E839F833C
:101C6000A887B98786E0882E912C8C0E9D1EE114E2
:101C7000F1040105110589F04E815F816885798540
:101C80008B8D9C8D94010E9498160894E108F108B0
:101C900001091109882359F791CFAA86BB86CC8602
:101CA000DD8681E08CCF211531054105510591F28A
:101CB000E618F70808091909D5CF1E821F82188671
:101CC00019861A861B861C861D8681E078CFCF93E5
:101CD000DF93EC01462F6E857F85888999890E9464
:101CE000B915882389F08A89282F30E0220F331F05
:101CF00022953295307F3227207F32272A5D374F59
:101D0000C901DF91CF91089520E030E0C901DF9152
:101D1000CF9108950F931F93CF93DF93EC018D81A3
:101D2000882351F08C8187FD0DC00E945715DF91EB
:101D3000CF911F910F91089580E0DF91CF911F9176
:101D40000F910895CE0161E00E94670E8C0100970B
:101D500099F38D81823018F18F89988DF801938FD6
:101D6000828F8F89988DA98DBA8DCD01AA27BB2727
:101D7000958B848BE0912408F0912508309759F0D9
:101D8000B8016A5E7F4FC80148961995F801808DA9
:101D9000918D938B828B8C818F778C83C6CF8B892F
:101DA0009C89AD89BE89F801848F958FA68FB78FE6
:101DB000D3CFCF93DF93EC010E948A0E882311F0DA
:101DC0001D8281E0DF91CF9108956F927F928F9273
:101DD0009F92AF92BF92CF92DF92EF92FF920F93BA
:101DE0001F93DF93CF9300D00F92CDB7DEB77C0166
:101DF0005A016B01DC0115968C9115978130A1F089
:101E000080E00F900F900F900F90CF91DF911F9176
:101E10000F91FF90EF90DF90CF90BF90AF909F9089
:101E20008F907F906F90089514968C9181FFE8CFEA
:101E3000F70183899489A589B68984179507A60730
:101E4000B707F0F20097A105B10509F45BC0F701EF
:101E50006284738484849584C701B601A5010E94BD
:101E6000C10D882369F2A114B104C104D10409F49D
:101E70004BC0D70116964D915D916D917C9119974C
:101E80005B968D919C915C979E012F5F3F4F0E94C6
:101E90009816882309F4B4CFD7015B96ED91FC9195
:101EA0005C9749815A816B817C818789803109F4F3
:101EB00058C088EF9FEFAFEFBFE0481759076A0798
:101EC0007B07C0F1D7015396AD92BD92CD92DC92C3
:101ED000569714968C911497806814968C93C7012A
:101EE0000E948A0E882309F48BCFB601A5016A14DB
:101EF0007B048C049D0410F4B401A301C7010E946B
:101F0000C10D7FCF81E07DCFD70157964D915D9177
:101F10006D917C915A975B968D919C915C970E94F4
:101F20001217882309F46CCFF701178A108E118ECF
:101F3000128EC8CFCF010E941217882309F460CFF8
:101F4000F7014681578160857185838D948D0FEFF0
:101F50001FEF2FEF3FE00E94F915882309F0B2CF61
:101F60004FCF88EF9FEFA0E0B0E0A7CF2F923F9236
:101F70004F925F926F927F928F929F92AF92BF9299
:101F8000CF92DF92EF92FF920F931F93DF93CF9345
:101F900000D00F92CDB7DEB76C015C834B83DC01C0
:101FA0001596EC911597EE2321F014968C9180FDF7
:101FB0001AC04FEF5FEFCA010F900F900F900F9074
:101FC000CF91DF911F910F91FF90EF90DF90CF9015
:101FD000BF90AF909F908F907F906F905F904F9049
:101FE0003F902F900895D60153966D907D908D90DF
:101FF0009C9056971A96ED90FD900D911C911D970F
:102000008B819C819C0140E050E0D401C3018E197A
:102010009F09A00BB10B82179307A407B50708F41B
:10202000C6C0AB81BC81109709F4E4C02B01C60186
:1020300006969A8389833D01212C52E0352E4FEF7D
:10204000842E41E0942E8E209F20E23009F498C027
:10205000D6015B96ED91FC915C97D801C70129E010
:10206000B695A795979587952A95D1F7B480BA9498
:10207000B82281149104A9F4BB2099F4E114F1046D
:102080000105110509F0B9C0D60157962D913D9172
:102090004D915C915A9716962D933D934D935C9379
:1020A0001997D60116964D915D916D917C91199776
:1020B0004250504060407040058404C0440F551F9A
:1020C000661F771F0A94D2F786859785A089B18904
:1020D000480F591F6A1F7B1F4B0D511D611D711D3C
:1020E0005101A818B9086A147B0408F45301F601D9
:1020F000848186FD62C0F0E0AF16F2E0BF0609F40D
:102100005CC0CB01BA0140E00E94B915882309F4F4
:1021100050CF94012A5D374FA9014A0D5B1D24174A
:10212000350759F0D201F90181918D934E175F0760
:10213000D9F7421B530B440E551E750100E010E009
:10214000F60182859385A485B585E80EF91E0A1FE0
:102150001B1FD6011A96ED92FD920D931C931D97AD
:102160006A187B0809F446C0D6011596EC914FEF2A
:10217000842E41E0942E8E209F20E23009F068CF1B
:10218000B801A70139E076956795579547953A9537
:10219000D1F7D6015B96ED91FC915C97828D938D82
:1021A000A48DB58D480F591F6A1F7B1F99CFC3019E
:1021B0008E199F099C838B8334CF809197059091D2
:1021C0009805A0919905B0919A05481759076A0793
:1021D0007B0709F496CF8091260A9091270A9401F3
:1021E000850172010E94C60C882309F4E2CE4A0CD4
:1021F0005B1CA3CF4B815C81DECED60116964D9140
:102200005D916D917C911997CF0129813A810E944E
:102210009816882309F4CDCED6015B96ED91FC91FA
:102220005C973FCFCF92DF92EF92FF920F931F9375
:10223000DF93CF930F92CDB7DEB78C01FC01858180
:10224000823068F420E030E0C9010F90CF91DF9137
:102250001F910F91FF90EF90DF90CF900895C2846F
:10226000D384E484F584C801BE016F5F7F4F41E0F1
:1022700050E00E94B60F019729F7F80182859385F7
:10228000A485B5854F96A11DB11D82879387A4872C
:10229000B58775E0F694E794D794C7947A95D1F70B
:1022A0008C2D8F70282F30E0220F331F229532950E
:1022B000307F3227207F32272A5D374FC5CF1F93CB
:1022C000CF93DF93EC01142FE62FF0E0EE0FFF1F0A
:1022D000E295F295F07FFE27E07FFE27EA5DF74F5B
:1022E0008385817121F0842F827409F044C06A8B48
:1022F0008091970590919805A0919905B0919A05C4
:102300008E879F87A88BB98B84899589A0E0B0E0E0
:10231000BC0155274427828D938DA0E0B0E0482B67
:10232000592B6A2B7B2B4F8B588F698F7A8F838524
:1023300090E0887190700097E1F4848D958DA68D62
:10234000B78D8B8B9C8BAD8BBE8B81E08D83812F6A
:102350008F708C831E821F82188619861A861B86B0
:102360001C861D8616FD18C081E0DF91CF911F915C
:102370000895409729F080E0DF91CF911F91089553
:102380009E012D5E3F4F8B8D9C8D0E947017882380
:1023900091F384E08D83DBCFCE0140E050E060E03C
:1023A00070E00E94E50EDF91CF911F910895CF93C9
:1023B000DF93EC019C012A5F3F4F8B8D9C8D41E0A8
:1023C00050E060E070E00E94E0178823A1F08F8960
:1023D000988DA98DBA8D0097A105B10559F48E810C
:1023E0009F81A885B9858F8B988FA98FBA8F8C8193
:1023F00080688C8381E0DF91CF9108952F923F9286
:102400004F925F926F927F929F92AF92BF92CF92C4
:10241000DF92EF92FF920F931F93DF93CF9300D041
:1024200000D0CDB7DEB75C01F62EE72E5E834D837C
:10243000DC0115968C911597813019F181E090E0BF
:10244000D50113969C938E9312971E821D828D81C7
:102450009E8126960FB6F894DEBF0FBECDBFCF91FA
:10246000DF911F910F91FF90EF90DF90CF90BF9081
:10247000AF909F907F906F905F904F903F902F9084
:10248000089514968C9181FFD9CF82FD54C1F50136
:102490004285538564857585ED81FE81309709F409
:1024A000C0C08F2D9E2D9C0119012F01D5015B9677
:1024B000ED91FC915C97DB01CA0119E0B695A795F7
:1024C000979587951A95D1F794809A949822AFEFB3
:1024D0006A2EA1E07A2E64227522992019F56114E2
:1024E000710401F5D50116964D915D916D917C9128
:1024F0001997411551056105710509F0F1C057960D
:102500002D913D914D915C915A97211531054105D1
:10251000510509F404C1D50116962D933D934D93B1
:102520005C93199780E092E08619970962018415FF
:10253000950508F46C01D5011696ED90FD900D916E
:102540001C9119978EEF9FEFAFEFBFEFE80EF91ECA
:102550000A1F1B1F058404C0EE0CFF1C001F111F67
:102560000A94D2F786859785A089B189E80EF91E6D
:102570000A1F1B1FE90CF11C011D111D90E0C9165B
:1025800092E0D90609F46EC06114710479F4F50182
:10259000228533854485558583899489A589B689A3
:1025A000281739074A075B0708F07AC0C801B70146
:1025B00041E00E94B915882309F440CFA3014A5D88
:1025C000574F9A012C0D3D1D4217530789F0D10139
:1025D000FA018D9181932E173F07D9F7CA01019611
:1025E00041E050E0481B590B240F351F220E331ECB
:1025F0004C185D08C601A0E0B0E0F50142855385A6
:1026000064857585480F591F6A1F7B1FD5011A966F
:102610004D935D936D937C931D974114510409F084
:1026200045CFF50183899489A589B68984179507D3
:10263000A607B70708F0A3C0D50153964D935D9345
:102640006D937C93569714968C911497806814968A
:102650008C9383FFFCCEC5010E948A0E882309F467
:10266000EDCEF5CE8091970590919805A0919905B2
:10267000B0919A058E159F05A007B10721F18091B1
:10268000260A9091270AB801A70191010E94660CC1
:10269000882309F4D3CEA0E0B2E02A0E3B1EA8CFD7
:1026A0000E945715882309F4C9CEE0929705F0924D
:1026B00098050093990510939A058091280A8160E6
:1026C0008093280A7BCF8FEF9FEFAFEFBFEF809310
:1026D000970590939805A0939905B0939A05CFCF4D
:1026E000CF019E012F5F3F4F0E949816882309F467
:1026F000ACCE29813A814B815C81D5015B96ED910D
:10270000FC915C9787898031A9F188EF9FEFAFEF4B
:10271000BFE0281739074A075B0708F4FCCEC5015C
:102720000E94D711882309F489CED5015B96ED91DB
:10273000FC915C97F7CEF5010389148925893689C8
:102740004285538564857585401751076207730775
:1027500009F4A2CEC501B901A8010E94C10D8823C8
:1027600009F46CCED5011A964D915D916D917C91D5
:102770001D9792CE88EF9FEFA0E0B0E0CACF809186
:10278000240890912508892B69F04D815E81452BA5
:1027900021F4D50114968C915CCFF5018481806879
:1027A000848357CFF501848154CFDF93CF930F9269
:1027B000CDB7DEB76983BE016F5F7F4F41E050E068
:1027C0000E94FE110F90CF91DF910895DF92EF925A
:1027D000FF920F931F93CF93DF93EC010E94D711C9
:1027E000882381F1EB8DFC8D8E819F81A885B98531
:1027F00026853785408951896585D480DD2071F132
:1028000079018A010894E108F10801091109029788
:10281000A109B10904C0880F991FAA1FBB1F6A959F
:10282000D2F7E80EF91E0A1F1B1F02C0DA9499F0B6
:10283000C801B7016D0D711D811D911D0E94951577
:102840008823A1F780E0DF91CF911F910F91FF9036
:10285000EF90DF900895EB8DFC8D658520E032E0F0
:1028600040E050E004C0220F331F441F551F6A95FB
:10287000D2F78B899C89AD89BE89820F931FA41FD3
:10288000B51F8B8B9C8BAD8BBE8B81E0DF91CF9185
:102890001F910F91FF90EF90DF9008956F927F92BC
:1028A0008F929F92AF92BF92CF92DF92EF92FF9260
:1028B0000F931F93DF93CF93CDB7DEB72B970FB650
:1028C000F894DEBF0FBECDBF4C016B01A22EDC0120
:1028D00015968C918823B1F080E02B960FB6F89472
:1028E000DEBF0FBECDBFCF91DF911F910F91FF9043
:1028F000EF90DF90CF90BF90AF909F908F907F90A0
:102900006F900895CA013E010894611C711CB301C7
:102910000E94810D882301F3F601838D948DD401EB
:102920005C969C938E935B97168217821086118615
:10293000D6011A961D921D921D921C921D97BB24C2
:10294000F601E284F3840485158583899489A58939
:10295000B689E816F9060A071B0708F044C0C60145
:102960000E941211FC01009709F4B6CF85E016957C
:102970000795F794E7948A95D1F71E2D1F708081F3
:102980008823A9F0853E99F0C301BF014BE050E0D8
:102990000E9448020097A1F68A2D8073803309F4C3
:1029A0009BCFC401612F4A2D0E945F1196CFBB209F
:1029B00099F4D40152961C93529720919705309127
:1029C00098054091990550919A051E962D933D9337
:1029D0004D935C9351978081882319F0BB24B39465
:1029E000AFCFBB24B3948A2D8271823109F074CFAA
:1029F000BB2009F049C0D60115968C91823009F4AC
:102A00006BCFC6010E94E613882309F465CFF40159
:102A1000128A06E218E080E2D8011D928A95E9F751
:102A2000D801F3018BE001900D928150E1F7E09124
:102A30002408F0912508309781F1B801625F7F4F3B
:102A4000C80140961995D80150968D919C91519747
:102A500053969C938E93529759969C938E93589726
:102A60001E968D919C911F9757969C938E93569787
:102A70000E945715882309F42FCFC401F4016289FD
:102A80004A2D0E945F1129CFC40161E00E94670EA8
:102A90008C01009709F0BFCF1FCF81E298E2F801C7
:102AA000918B808B80E098E097878687CCCF809150
:102AB000280A882311F481E00895409197055091E8
:102AC00098056091990570919A058091260A9091D8
:102AD000270A26E238E00E94660C8823D9F040914C
:102AE000290A50912A0A60912B0A70912C0A4115EB
:102AF00051056105710521F41092280A81E00895BD
:102B00008091260A9091270A26E238E00E94660CFE
:102B1000882311F480E008951092290A10922A0A5D
:102B200010922B0A10922C0AE7CFEF92FF920F938C
:102B30001F937B018C010E9457158823A9F0E6E2C0
:102B4000F8E011928AE0E632F807D9F7E0929705AB
:102B5000F09298050093990510939A058091280AA0
:102B600081608093280A81E01F910F91FF90EF9080
:102B70000895DF92EF92FF920F931F937B018C01D8
:102B8000D42E8091970590919805A0919905B091C8
:102B90009A058E159F05A007B107F9F00E945715F9
:102BA000882339F480E01F910F91FF90EF90DF9020
:102BB00008958091260A9091270AB801A70126E27C
:102BC00038E00E94710D882369F3E0929705F09236
:102BD00098050093990510939A058091280A8D29EC
:102BE0008093280A81E01F910F91FF90EF90DF9072
:102BF00008954F925F926F927F928F929F92AF92C1
:102C0000BF92CF92DF92EF92FF920F931F93CF93D9
:102C1000DF93EC016A017B01280139014230510543
:102C20006105710508F45BC089859A85AB85BC8513
:102C30000196A11DB11D84179507A607B70708F4D3
:102C40004EC02B893C894D895E89EF89E03109F4BA
:102C500061C0C701B60107E096958795779567959E
:102C60000A95D1F74B015C01820E931EA41EB51E7E
:102C70008091970590919805A0919905B0919A053A
:102C800088169906AA06BB06E1F5E03109F447C0AB
:102C9000F601EF77F070EE0FFF1FEE0FFF1FEA5DFA
:102CA000F74F40825182628273828091280A81604C
:102CB0008093280A8A89823080F08D819E81AF813D
:102CC000B885880E991EAA1EBB1E8092290A909272
:102CD0002A0AA0922B0AB0922C0A81E001C080E05F
:102CE000DF91CF911F910F91FF90EF90DF90CF90E8
:102CF000BF90AF909F908F907F906F905F904F901C
:102D00000895C501B40140E00E94B915882339F344
:102D1000EF89BBCF99278F2D7E2D6D2DA3CFF60187
:102D2000F070EE0FFF1FEA5DF74F51824082BDCF7A
:102D3000CF92DF92EF92FF920F931F93CF93DF9387
:102D4000EC017A018B01690189859A85AB85BC8587
:102D50000196A11DB11D84179507A607B70708F4B2
:102D600041C02B893C894D895E89EF89E03109F4A6
:102D700043C0C801B701F7E09695879577956795A9
:102D8000FA95D1F7260F371F481F591F80919705D5
:102D900090919805A0919905B0919A052817390747
:102DA0004A075B0741F0CA01B90140E00E94B9152A
:102DB0008823C1F0EF89E03121F1F701EF77F0705E
:102DC000EE0FFF1FEE0FFF1FEA5DF74F808191812D
:102DD000A281B381BF70F60180839183A283B38304
:102DE00081E001C080E0DF91CF911F910F91FF90B2
:102DF000EF90DF90CF9008959927812F702F6F2D3E
:102E0000C1CFF701F070EE0FFF1FEA5DF74F808131
:102E10009181A0E0B0E0F60180839183A283B38327
:102E200081E0E1CFAF92BF92CF92DF92EF92FF921B
:102E30000F931F93DF93CF9300D00F92CDB7DEB7E0
:102E40006C017A018B0182E090E0A0E0B0E0F60135
:102E500080839183A283B3835E010894A11CB11C7B
:102E600009C088EF9FEFAFEFBFE0E816F9060A0749
:102E70001B0720F5C601B801A70195010E9498160D
:102E8000882361F1C601B801A70100E010E020E04D
:102E900030E00E94F915882309F1E980FA800B815E
:102EA0001C81F60187898031E1F688EF9FEFA0E071
:102EB000B0E0E816F9060A071B07E0F281E00F9080
:102EC0000F900F900F90CF91DF911F910F91FF9076
:102ED000EF90DF90CF90BF90AF90089580E0EFCF5C
:102EE0004F925F926F927F928F929F92AF92BF921A
:102EF000CF92DF92EF92FF920F931F93DF93CF93C6
:102F000000D00F92CDB7DEB76C0149835A836B8333
:102F10007C832901EE24FF2487013E010894611C73
:102F2000711C812CB2E09B2EA12CB12C09C088EF22
:102F30009FEFAFEFBFE0481759076A077B0728F5F7
:102F4000C60193010E949816882329F1D501C40176
:102F5000F601058404C0880F991FAA1FBB1F0A949D
:102F6000D2F7E80EF91E0A1F1B1F49815A816B8197
:102F70007C8187898031D9F688EF9FEFA0E0B0E0AF
:102F8000481759076A077B07D8F2F201E082F182FD
:102F90000283138381E00F900F900F900F90CF91D9
:102FA000DF911F910F91FF90EF90DF90CF90BF9036
:102FB000AF909F908F907F906F905F904F9008950B
:102FC0002F923F924F925F926F927F928F929F9239
:102FD000AF92BF92CF92DF92EF92FF920F931F9327
:102FE000DF93CF93CDB7DEB767970FB6F894DEBF08
:102FF0000FBECDBF1C014A875B876C877D873F87EB
:103000002E87D9010D911D912D913C91011511052E
:103010002105310509F4D3C0D901C8010196A11DCC
:10302000B11D8C8B9D8BAE8BBF8B1986F101818579
:103030009285A385B4859C01AD012F5F3F4F4F4F13
:103040005F4F2D833E834F8358870097A105B105BD
:1030500009F49BC0CC88DD88EE88FF8888249924F9
:1030600054018E010F5F1F4F1CC0A70196012F5FF7
:103070003F4F4F4F5F4F2C8B3D8B4E8B5F8B089498
:10308000811C911CA11CB11CF10181859285A38535
:10309000B48588169906AA06BB0608F076C06901B1
:1030A0007A018D819E81AF81B8858C159D05AE0515
:1030B000BF0570F492E0492E512C612C712C4C8A82
:1030C0005D8A6E8A7F8A82E0C82ED12CE12CF12C99
:1030D000C101B701A60198010E949816882309F43E
:1030E00054C089819A81AB81BC810097A105B1054B
:1030F00009F0BBCFA70196012F5F3F4F4F4F5F4FA6
:10310000DA01C9014C885D886E887F888419950929
:10311000A609B7094A845B846C847D84841595056F
:10312000A605B70509F0ABCFC101A601B7010FEFA6
:103130001FEF2FEF3FE00E94F915882331F14C88F3
:103140005D886E887F884C145D046E047F0468F08F
:103150004DC02C893D894E895F89281539054A055E
:103160005B0508F043C075016401460157010894EE
:1031700081089108A108B108C101B501A401970116
:1031800086010E94F915882321F780E067960FB623
:10319000F894DEBF0FBECDBFCF91DF911F910F918D
:1031A000FF90EF90DF90CF90BF90AF909F908F9067
:1031B0007F906F905F904F903F902F900895DC012B
:1031C0004D905D906D907C904C8A5D8A6E8A7F8A6E
:1031D00019862A853B854C855D8521303105410561
:1031E000510509F023CF31E0398720CFAE85BF8567
:1031F0004D915D916D917C91411551056105710570
:10320000F1F44C885D886E887F88AE85BF854D92CD
:103210005D926D927C921397B985BB2371F02C89D6
:103220003D894E895F892F5F3F4F4F4F5F4FD101DF
:103230002D933D934D935C93139781E0A7CFC101EC
:103240000C891D892E893F890E94F9158823C9F6AA
:103250009CCFFC018FEF818B8787808B828B0895B9
:10326000AF92BF92CF92DF92FF920F931F93CF93B3
:10327000DF938C01C62EDD24FF24C7E0D0E081E07F
:10328000A82EB12C1DC0F801808961E00E94DD33B9
:10329000F801818961E00E94DD33F80187850E9491
:1032A0001334892B41F0C5010C2E02C0880F991FE1
:1032B0000A94E2F7F82A2197FFEFCF3FDF07A1F04A
:1032C000F801818960E00E94DD33C6010C2E02C046
:1032D000959587950A94E2F780FDD5CFF80180890E
:1032E00060E00E94DD33D4CF8F2DDF91CF911F910D
:1032F0000F91FF90DF90CF90BF90AF9008950F9304
:103300001F93CF93DF93EC01162F042F8A898F3FF1
:10331000C9F0898961E00E94DD338A8960E00E94FA
:10332000DD33CE01612F0E943019CE01602F0E9443
:1033300030198A8961E00E94DD33DF91CF911F91BE
:103340000F91089583E79AE06C850E949A1B83E7AA
:103350009AE0612F0E94201C83E79AE0602F0E9470
:10336000201C83E79AE00E946D1CDF91CF911F9192
:103370000F9108951F93CF93DF93EC01162F8A8945
:103380008F3FD9F0898961E00E94DD338A8960E04E
:103390000E94DD331068CE01612F0E943019CE01EA
:1033A0006FEF0E943019182F8A8961E00E94DD3387
:1033B000812FDF91CF911F91089583E79AE06C856B
:1033C0000E949A1B83E79AE0612F0E94201C83E7EA
:1033D0009AE00E946D1C83E79AE06C8541E00E94B0
:1033E0007E1C83E79AE00E94AD1B182F83E79AE0CA
:1033F0000E946D1C812FDF91CF911F9108956F92D4
:103400007F928F929F92AF92BF92CF92DF92EF9274
:10341000FF920F931F93CF93DF93EC018A898F3F25
:1034200009F4A9C0898961E00E94DD338A8960E0DE
:103430000E94DD33CE0168EE0E9430196AE070E030
:1034400080E090E00E945932CE016FEF0E94301967
:10345000082FCE016FEF0E943019182FCE016FEFA9
:103460000E943019C82ECE016FEF0E943019D82E5D
:10347000CE016FEF0E943019882ECE016FEF0E94AF
:103480003019982E8A8961E00E94DD33712F60E047
:10349000202F30E0622B732B882777FD8095982FA3
:1034A0000E945D367B018C01688379838A839B83CC
:1034B0007D2D60E02C2D30E0622B732B882777FD6B
:1034C0008095982F0E945D365B016C016C837D8333
:1034D0008E839F83792D60E0282D30E0622B732B43
:1034E000882777FD8095982F0E945D363B014C011F
:1034F000688779878A879B878D859E85813091052E
:1035000009F497C08230910509F46EC0892B21F52A
:10351000C801B70129E23CE54FE05CE30E94213796
:10352000688379838A839B83C601B50129E23CE5E0
:103530004FE05CE30E9421376C837D838E839F8301
:10354000C401B30129E23CE54FE05CE30E9421376E
:10355000688779878A879B87DF91CF911F910F9129
:10356000FF90EF90DF90CF90BF90AF909F908F90A3
:103570007F906F90089583E79AE06C850E949A1B74
:1035800083E79AE068EA0E94201C83E79AE00E94A1
:103590006D1C83E79AE06C8546E00E947E1C83E701
:1035A0009AE00E94A41B0697D4F383E79AE00E9456
:1035B000AD1B082F83E79AE00E94AD1B182F83E70D
:1035C0009AE00E94AD1BC82E83E79AE00E94AD1BD3
:1035D000D82E83E79AE00E94AD1B882E83E79AE0FD
:1035E0000E94AD1B982E52CFC801B70129E23CE5DD
:1035F0004FE85DE30E942137688379838A839B8348
:10360000C601B50129E23CE54FE85DE30E942137A0
:103610006C837D838E839F83C401B30129E23CE5E3
:103620004FE85DE30E942137688779878A879B8707
:1036300093CFC801B70129E23CE54FE85CE30E9463
:103640002137688379838A839B83C601B50129E288
:103650003CE54FE85CE30E9421376C837D838E83D9
:103660009F83C401B30129E23CE54FE85CE30E947B
:103670002137688779878A879B876ECFFF920F9360
:103680001F93CF93DF93EC018B01F42E8A898F3F38
:1036900021F161E00E941B33898961E00E941B33A4
:1036A000888961E00E941B338F8560E00E941B3394
:1036B0008A8961E00E94DD33FC861E870D87CE017A
:1036C0006FE070E00E94BA19843D61F080E0DF9104
:1036D000CF911F910F91FF90089583E79AE00E9488
:1036E000821CEACFCE0160E270E04FE00E947F19B9
:1036F0008D859E8581309105A9F08230910551F02C
:10370000892B71F4CE0163E270E040E00E947F19E2
:1037100081E0DDCFCE0163E270E040E20E947F19DC
:1037200081E0D5CFCE0163E270E040E10E947F19D5
:1037300081E0CDCF81E08093720A60934F0A1092AE
:10374000700A1092710A089520914E0A30E080911B
:103750004D0A281B3109C901089540914D0A8091F5
:103760004E0A481760F4E42FF0E0E35DF54F8081E6
:10377000282F30E04F5F40934D0AC90108952FEF85
:103780003FEFC9010895E0914D0A80914E0AE81774
:1037900040F4F0E0E35DF54F8081E82FF0E0CF01E9
:1037A0000895EFEFFFEFCF01089508951092760A84
:1037B0001092750A88EE93E0A0E0B0E08093770A5B
:1037C0009093780AA093790AB0937A0A84EC95E0F2
:1037D0009093740A8093730A0895CF92DF92EF92C8
:1037E000FF920F931F93CF93DF937C016B018A01AC
:1037F0008091720A8823F9F04115510591F0C0E0DB
:10380000D0E0D701ED91FC91D601AC0FBD1F019026
:10381000F081E02DC7016C9119952196C017D10751
:1038200080F3C801DF91CF911F910F91FF90EF902E
:10383000DF90CF900895CB01642F0E94371DF1CF08
:10384000DF93CF930F92CDB7DEB7FC0169838091F0
:10385000720A882319F18091710A8032A0F4809154
:10386000700AE82FF0E0E05BF54F998190838F5F5D
:103870008093700A8093710A21E030E0C9010F90B3
:10388000CF91DF91089581E090E09383828320E0DF
:1038900030E0C9010F90CF91DF910895CE010196DC
:1038A00061E00E94371D21E030E0C9010F90CF9107
:1038B000DF9108950F93062F80914F0A60E57AE01B
:1038C0004091710A21E00E94DA1C1092700A109255
:1038D000710A1092720A0F91089561E00E945A1CB9
:1038E0000895413208F040E2862F6DE27AE00E94AE
:1038F0008D1C10924D0A80934E0A089521E00E947B
:10390000711C089510924D0A10924E0A1092700A7E
:103910001092710A0E949D1E0895382F4132E8F5D9
:1039200080917F0A8823E1F791E090937F0A2093AA
:10393000810A8FEF8093EC0A1092A70A41504093BE
:10394000A80A4F5F9093800A8091800A330F832BDF
:103950008093800A8091820A813011F185EE8093F4
:10396000BC0080917F0A8130E1F38091A70A84171F
:1039700010F44091A70A442371F020E030E0FB01ED
:10398000E20FF31FD901A957B54F8C9180832F5FA8
:103990003F4F2417A0F3842F089540E0842F08950B
:1039A0001092820A8091800A8093BB0085EC8093FC
:1039B000BC00D7CF0F93982F522F413208F044C04C
:1039C00080917F0A8823E1F782E080937F0A009349
:1039D000810A8FEF8093EC0A1092A70A4093A80AFD
:1039E000442371F020E030E0F901E957F54FDB01A5
:1039F000A20FB31F8C9180832F5F3F4F2417A0F33A
:103A00001092800A8091800A990F892B8093800AF6
:103A10008091820A8130D9F085EE8093BC005523D5
:103A200021F080917F0A8230E1F38091EC0A8F3F90
:103A3000C1F08091EC0A8032B1F08091EC0A8033C1
:103A4000A1F084E00F91089581E00F910895109204
:103A5000820A8091800A8093BB0085EC8093BC0031
:103A6000DECF80E0EFCF82E0EDCF83E0EBCFAC01A3
:103A70006132D0F480917F0A843011F082E00895A1
:103A80006093CA0A662371F020E030E0F901E7553F
:103A9000F54FDA01A20FB31F8C9180832F5F3F4F48
:103AA0002617A0F380E0089581E008951F920F92F9
:103AB0000FB60F920BB60F9211242F933F934F9393
:103AC0005F936F937F938F939F93AF93BF93EF9386
:103AD000FF938091B90090E0A0E0B0E0887F907003
:103AE000A070B070FC01893C910590F5EE58FF4F35
:103AF000EE0FFF1F0590F491E02D199484E0809360
:103B00007F0A1092C90A1092CA0AE091830AF091C2
:103B1000840A19958091CA0A882329F481E0809348
:103B2000CA0A1092A90A9091C90AE92FF0E0E75554
:103B3000F54F80818093BB009F5F9093C90A90915D
:103B4000C90A8091CA0A9817D8F485EC8093BC0002
:103B5000FF91EF91BF91AF919F918F917F916F9165
:103B60005F914F913F912F910F900BBE0F900FBE21
:103B70000F901F9018958091EB0A803208F4ADC029
:103B800085E88093BC00E4CF8091A70A9091BB00A8
:103B9000E82FF0E0E957F54F90838F5F8093A70AF5
:103BA0009091A70A8091A80A981750F7CECF80E38A
:103BB0008093EC0A85ED8093BC008091BC0084FD6D
:103BC000FCCF10927F0AC4CF88E38093EC0A85EC87
:103BD0008093BC0010927F0ABBCF8091A70A90917E
:103BE000BB00E82FF0E0E957F54F90838F5F80939B
:103BF000A70A8091810A882309F486C085ED809305
:103C0000BC008091BC0084FDFCCFDBCF83E08093BF
:103C10007F0A1092EB0A85EC8093BC0099CF10923A
:103C2000EC0A85ED8093BC008091BC0084FDFCCF44
:103C3000C8CF8091800A8093BB0085EC8093BC0044
:103C400087CF9091A70A8091A80A981708F465C0B9
:103C50008091810A882309F457C085ED8093BC00C8
:103C60008091BC0084FDFCCFACCF80E28093EC0A55
:103C700085ED8093BC008091BC0084FDFCCFA1CF7A
:103C80008091EB0A8032C8F185ED8093BC00809171
:103C9000BC0084FDFCCF10927F0A6091EB0AE0919A
:103CA000850AF091860A8BEC9AE070E019951092E3
:103CB000EB0A85EC8093BC0010927F0A49CF85EC1B
:103CC0008093BC0010927F0A43CF85ED8093BC00A7
:103CD0008091BC0084FDFCCF74CF8091EB0A909161
:103CE000BB00E82FF0E0E553F54F90838F5F8093A2
:103CF000EB0A85EC8093BC002BCFE091EB0AF0E05F
:103D0000E553F54F1082C0CF81E08093820A84EAA8
:103D10008093BC0010927F0A1BCF9091A70AE92FD5
:103D2000F0E0E957F54F80818093BB009F5F90934F
:103D3000A70A85EC8093BC000BCF10927F0A81E02C
:103D40008093810A1092820A84E161E00E94DD334F
:103D500085E161E00E94DD33E9EBF0E080818E7F58
:103D6000808380818D7F808388E48093B80085E4A0
:103D70008093BC000895FC0184ED95E091838083DD
:103D800042835383648375830895EF92FF920F9368
:103D90001F937C018B0188E2FB0111928A95E9F760
:103DA000CB0165E775E04BE050E00E947002F8013E
:103DB000138681E090E0A0E0B0E084879587A68735
:103DC000B787F70182819381A481B581F801808B47
:103DD000918BA28BB38B86E090E0A0E0B0E0848B67
:103DE000958BA68BB78B14A215A216A217A280E002
:103DF00090E0A6E9B3E4808F918FA28FB38F80E02B
:103E000090E8A9E8B4E4848F958FA68FB78F8AE0F5
:103E100097EDA3E2BCE380A391A3A2A3B3A31F9158
:103E20000F91FF90EF9008958F929F92AF92BF9263
:103E3000CF92DF92EF92FF920F931F93CB01BA01C3
:103E4000A90198010E94C23521ED39EC42E45EE3FC
:103E50000E9484379B01AC01CA01B90120E030E027
:103E600040E85FE30E9459354B015C01C701B60190
:103E700023E333E948E853E40E945A359B01AC013F
:103E8000C501B4010E94213724EF3DEF44ED5BE30F
:103E90000E94C2351F910F91FF90EF90DF90CF905D
:103EA000BF90AF909F908F900895EF92FF920F93E5
:103EB0001F93182F062F83E7E82E8AE0F82EC701FC
:103EC00067E70E949A1BC701612F0E94201CC7014F
:103ED000602F0E94201CC7010E946D1C1F910F9132
:103EE000FF90EF900895CF92DF92FF920F931F9370
:103EF000F82E6B0103E71AE0C80167E70E949A1BDE
:103F0000C8016F2D0E94201CC8010E946D1CC801B1
:103F100067E742E00E947E1CC8010E94AD1BF82E9C
:103F2000C8010E94AD1B3F2D20E0282B392BF60144
:103F300031832083C8010E946D1C1F910F91FF9057
:103F4000DF90CF9008950F931F93DF93CF930F923D
:103F50000F92CDB7DEB78C0184EF6EE20E94551F41
:103F600065E070E080E090E00E94593286EFBE018B
:103F70006F5F7F4F0E94731F89819A81A0E0B0E03C
:103F8000F80180839183A283B3830F900F90CF9128
:103F9000DF911F910F9108958F929F92AF92BF92E0
:103FA000CF92DF92EF92FF920F931F93DF93CF9305
:103FB00000D00F92CDB7DEB74B01CE0101960E9423
:103FC000A31F2091F70A3091F80A40E050E0698180
:103FD0007A818B819C81621B730B840B950B2091E2
:103FE000F50A3091F60A40E050E00E94DF380E9466
:103FF0005D3620E030E040E058E30E9421370E9427
:104000002A367B018C016091FF0A7091000B882792
:1040100077FD8095982F0E945D3620E030E040E0EB
:1040200055E40E9421375B016C016091010B709196
:10403000020B882777FD8095982F6E0D7F1D801FBE
:10404000911F0E945D369B01AC01C601B5010E9423
:10405000C2350E942A3628E030E040E050E0E20E0F
:10406000F31E041F151F6E0D7F1D801F911F0E94E0
:104070005D3620E030E040E85DE30E94213720E03B
:1040800030E040E251E40E94C235F4016083718364
:10409000828393830F900F900F900F90CF91DF91B9
:1040A0001F910F91FF90EF90DF90CF90BF90AF9056
:1040B0009F908F900895CF92DF92EF92FF921F937F
:1040C000182F6B0193E7E92E9AE0F92EC70167E7F5
:1040D0000E949A1BC701612F0E94201CC7010E94E9
:1040E0006D1CC70167E741E00E947E1CC7010E946A
:1040F000AD1BF6018083C7010E946D1C1F91FF90CC
:10410000EF90DF90CF9008952F923F924F925F9261
:104110006F927F928F929F92AF92BF92CF92DF92D7
:10412000EF92FF920F931F93DF93CF93CDB7DEB73C
:104130002F970FB6F894DEBF0FBECDBF7F876E8777
:104140001C821D821E821F82CE0104960E94A31F24
:104150006091030B6295660F660F607C6C5C84EF68
:104160000E94551F8091030B813009F4D9C1813021
:1041700008F4C2C1823009F4DAC16AE170E080E07B
:1041800090E00E94593286EFBE016E5F7F4F0E9421
:10419000731F6A807B8088249924982C872C762C26
:1041A000662488EFBE016F5F7F4F0E945B2089818C
:1041B000680E711C811C911C8091030B282F30E02C
:1041C000398728872091F70A3091F80A40E050E0BB
:1041D0006C817D818E819F81621B730B840B950B9B
:1041E0002091F50A3091F60A40E050E00E94DF3855
:1041F0000E945D3620E030E040E058E30E94213725
:104200000E942A367B018C016091FF0A7091000B9D
:10421000882777FD8095982F0E945D3620E030E05A
:1042200040E055E40E9421370E942A362091010B7C
:104230003091020B442737FD4095542F2E0D3F1D22
:10424000401F511F0E94203959016A0180E690EFFA
:10425000AFEFBFEFE80EF91E0A1F1B1FAE0CBF1C0D
:10426000C01ED11EC601B501A60195010E94DF380E
:104270001B012C01ACE05594479437942794AA95E0
:10428000D1F72091F10A3091F20A442737FD409589
:10429000542FC601B5010E94DF387B018C01FDE07F
:1042A00015950795F794E794FA95D1F782E090E099
:1042B000A0E0B0E0E80EF91E0A1F1B1F2091F90ACA
:1042C0003091FA0A442737FD4095542FC201B101BD
:1042D0000E94DF38BC01992777FD9095892FE60E63
:1042E000F71E081F191F15950795F794E794159564
:1042F0000795F794E79480E090E8A0E0B0E0E80E3E
:10430000F91E0A1F1B1F2091F30A3091F40A40E0A6
:1043100050E0C801B7010E94DF38DC01CB014FE05B
:10432000B695A795979587954A95D1F78A879B87E4
:10433000AC87BD8788E090E0A885B9858A1B9B0B78
:1043400004C095948794779467948A95D2F72091C6
:10435000EF0A3091F00A442737FD4095542FC601EB
:10436000B5010E94DF387B018C013BE01595079574
:10437000F794E7943A95D1F78091ED0A9091EE0A7F
:10438000AA2797FDA095BA2F880F991FAA1FBB1FB8
:10439000880F991FAA1FBB1FE80EF91E0A1F1B1FBB
:1043A0002091FB0A3091FC0A442737FD4095542F99
:1043B000C201B1010E94DF38ABE0959587957795F2
:1043C0006795AA95D1F7E60EF71E081F191F0884F6
:1043D00004C0EE0CFF1C001F111F0A94D2F782E0EC
:1043E00090E0A0E0B0E0E80EF91E0A1F1B1F159533
:1043F0000795F794E79415950795F794E7946E1849
:104400007F08800A910A20E533EC40E050E0088400
:1044100004C055954795379527950A94D2F7C4015E
:10442000B3010E94DF3897FD6EC0660F771F881FAB
:10443000991F2A853B854C855D850E94FE38C90100
:10444000DA015C016D015527D7FC5A954D2D3C2DA5
:104450002B2DCA01B9010E94DF382EED3BE040E070
:1044600050E00E94DF387B018C01C601B50123E4D6
:1044700033EE4FEF5FEF0E94DF38BC01992777FDE5
:104480009095892F6153714F8F4F9F4F780111275E
:10449000F7FC1095012F6E0D7F1D801F911F24E0EA
:1044A00095958795779567952A95D1F76A0D7B1D28
:1044B0008C1D9D1D0E945D36AE85BF856D937D93DD
:1044C0008D939C9313972F960FB6F894DEBF0FBE73
:1044D000CDBFCF91DF911F910F91FF90EF90DF90B3
:1044E000CF90BF90AF909F908F907F906F905F9094
:1044F0004F903F902F90089565E070E080E090E04D
:104500000E94593240CE2A853B854C855D850E94AC
:10451000FE3859016A01AA0CBB1CCC1CDD1C93CFD0
:1045200068E070E080E090E00E9459322CCE6EE0AE
:1045300070E080E090E00E94593225CE0F931F93E7
:10454000DF93CF9300D00F92CDB7DEB7FC018B0184
:1045500084E2DB011D928A95E9F724E230E040E035
:1045600050E0DB012D933D934D935C931397228193
:1045700033814481558114962D933D934D935C93E3
:10458000179726E030E040E050E018962D933D93D9
:104590004D935C931B9750961D921D921D921C92F9
:1045A0005397CF01BE016F5F7F4F0E9484206981C6
:1045B0007A818B819C8120E030E048EC52E40E94BB
:1045C000C235F801648B758B868B978B0F900F909B
:1045D0000F900F90CF91DF911F910F9108950F933E
:1045E0001F93DF93CF9300D0CDB7DEB78B0183E766
:1045F0009AE00E94821C04301105A4F417FD12C039
:1046000080EDBE016F5F7F4F0E945B208981853501
:1046100061F080E00F900F900F90CF91DF911F918C
:104620000F91089503E010E0EBCF0093030B8E0190
:104630000E5F1F4F8AEAB8010E94731F8A819B8117
:104640009093EE0A8093ED0A8CEAB8010E94731FE2
:104650008A819B819093F00A8093EF0A8EEAB801D9
:104660000E94731F8A819B819093F20A8093F10AC2
:1046700080EB63EF7AE00E94731F82EB65EF7AE0D4
:104680000E94731F84EB67EF7AE00E94731F86EB32
:10469000B8010E94731F8A819B819093FA0A8093CC
:1046A000F90A88EBB8010E94731F8A819B8190935D
:1046B000FC0A8093FB0A8AEBB8010E94731F8A816F
:1046C0009B819093FE0A8093FD0A8CEBB8010E94B7
:1046D000731F8A819B819093000B8093FF0A8EEB5E
:1046E000B8010E94731F8A819B819093020B809373
:1046F000010B81E00F900F900F90CF91DF911F91F0
:104700000F910895FC0184EE95E0918380834687A4
:104710005787608B718B0895FC018CED95E0918338
:104720008083448B558B668B778B0895EF92FF9235
:104730000F931F937C018B0188E2FB0111928A95F4
:10474000E9F7CB016CE775E04BE050E00E947002A6
:10475000F801138681E090E0A0E0B0E084879587BF
:10476000A687B787F70184899589A689B789F80153
:10477000808B918BA28BB38B82E090E0A0E0B0E0C5
:10478000848B958BA68BB78B14A215A216A217A2A9
:1047900080E090E0A0E0B0E0808F918FA28FB38F97
:1047A000848F958FA68FB78F80A391A3A2A3B3A365
:1047B0001F910F91FF90EF900895EF92FF920F934A
:1047C0001F937C018B0188E2FB0111928A95E9F726
:1047D000CB016CE775E04BE050E00E947002F801FD
:1047E000138621E030E040E050E02487358746879B
:1047F0005787F70186859785A089B189F801808B55
:10480000918BA28BB38B248B358B468B578B14A249
:1048100015A216A217A280E090E0A0E0B0E0808F81
:10482000918FA28FB38F848F958FA68FB78F80A320
:1048300091A3A2A3B3A31F910F91FF90EF900895AE
:104840009F92AF92BF92CF92DF92EF92FF920F931F
:104850001F93CF93DF93EC0183E79AE06EE10E9410
:104860009A1B83E79AE063E00E94201C83E79AE0AA
:104870000E946D1C83E79AE06EE146E00E947E1C78
:1048800083E79AE00E94A41B0697D4F383E79AE09B
:104890000E94AD1BA82E83E79AE00E94AD1BE82E74
:1048A00083E79AE00E94AD1B982E83E79AE00E946E
:1048B000AD1BC82E83E79AE00E94AD1BB82E83E79C
:1048C0009AE00E94AD1B082F7A2D60E0FF246E292C
:1048D0007F29882777FD8095982F0E945D366C830D
:1048E0007D838E839F837B2D60E010E0602B712B96
:1048F000882777FD8095982F0E945D366887798795
:104900008A879B87792D60E0DD246C297D298827A3
:1049100077FD8095982F0E945D366C877D878E8706
:104920009F8780E090E0A0E0B0E0888B998BAA8B15
:10493000BB8BDF91CF911F910F91FF90EF90DF9094
:10494000CF90BF90AF909F900895AF92BF92CF92BB
:10495000DF92EF92FF920F931F935C018B0184E231
:10496000FB0111928A95E9F7C5010E94202484E297
:1049700090E0A0E0B0E0F80180839183A283B3834C
:10498000F50184899589A689B789F801848395837F
:10499000A683B78382E090E0A0E0B0E080879187B3
:1049A000A287B387108A118A128A138AC0909B0546
:1049B000D0909C05E0909D05F0909E05F5016481E6
:1049C000758186819781A70196010E94C23520E0FA
:1049D00030E048EC52E40E942137F801648B758B7B
:1049E000868B978BF5016085718582859385A701FC
:1049F00096010E94C23520E030E048EC52E40E946B
:104A00002137F801608F718F828F938FF501648554
:104A100075858685978520919F053091A0054091E9
:104A2000A1055091A2050E94C23520E030E048EC7B
:104A300052E40E942137F801648F758F868F978F1B
:104A40001F910F91FF90EF90DF90CF90BF90AF90AC
:104A500008959F92AF92BF92CF92DF92EF92FF9212
:104A60000F931F93CF93DF93EC0183E79AE069E103
:104A70000E949A1B83E79AE068EA0E94201C83E761
:104A80009AE00E946D1C83E79AE069E146E00E948B
:104A90007E1C83E79AE00E94A41B0697D4F383E769
:104AA0009AE00E94AD1B082F83E79AE00E94AD1B9D
:104AB000B82E83E79AE00E94AD1BE82E83E79AE0C8
:104AC0000E94AD1BA82E83E79AE00E94AD1BC82E62
:104AD00083E79AE00E94AD1B982E7B2D60E010E0EA
:104AE000602B712B7595679575956795759567958D
:104AF00075956795882777FD8095982F0E945D367C
:104B00006A837B838C839D837A2D60E0FF246E29EA
:104B10007F297595679575956795759567957595D1
:104B20006795882777FD8095982F0E945D366E8364
:104B30007F8388879987792D60E0DD246C297D2922
:104B4000759567957595679575956795759567954D
:104B5000882777FD8095982F0E945D366A877B872E
:104B60008C879D87DF91CF911F910F91FF90EF90E0
:104B7000DF90CF90BF90AF909F900895EF92FF92FB
:104B80000F931F937C018B0184E2FB0111928A95A4
:104B9000E9F7C7010E94292584E290E0A0E0B0E097
:104BA000F80180839183A283B383F701868597857B
:104BB000A089B189F80184839583A683B78381E0B6
:104BC00090E0A0E0B0E080879187A287B387108A49
:104BD000118A128A138AF701628173818481958117
:104BE0002FE632E143E85AE30E9421372AE038EE0B
:104BF0004CE151E40E942137F801648B758B868B60
:104C0000978BF70166817781808591852FE632E168
:104C100043E85AE30E9421372AE038EE4CE151E4A0
:104C20000E942137F801608F718F828F938FF70177
:104C300062857385848595852FE632E143E85AE3E2
:104C40000E9421372AE038EE4CE151E40E942137DE
:104C5000F801648F758F868F978F1F910F91FF904A
:104C6000EF900895EF92FF920F931F93F42EE22E90
:104C700003E71AE0C8010E949A1BC8016F2D0E9429
:104C8000201CC8016E2D0E94201CC8010E946D1CB2
:104C90001F910F91FF90EF9008950F931F93CF9363
:104CA000DF938C01EB016EE141E02C2F0E94322654
:104CB000F801D383C283C038D10509F4C5C0C13817
:104CC000D10544F1C03CD10509F484C0C03ED105F2
:104CD00009F463C0C03AD105C1F480E090E0A8ECCB
:104CE000B3E480939B0590939C05A0939D05B0939E
:104CF0009E0580E090E0AFE7B3E480939F0590933A
:104D0000A005A093A105B093A205DF91CF911F91BB
:104D10000F910895C034D10509F479C0C036D1058A
:104D2000F9F0A09791F780E090E8A9E8B4E48093C7
:104D30009B0590939C05A0939D05B0939E0580E0F4
:104D400090E0A5E7B4E480939F059093A005A0931D
:104D5000A105B093A205DF91CF911F910F91089506
:104D600080E090E8A7E2B4E480939B0590939C05D3
:104D7000A0939D05B0939E0580E090E0A6E1B4E489
:104D800080939F059093A005A093A105B093A205E1
:104D9000DF91CF911F910F91089580E090E0A6E6FA
:104DA000B3E480939B0590939C05A0939D05B093DD
:104DB0009E0580E090E0ADE4B3E480939F0590937E
:104DC000A005A093A105B093A205DF91CF911F91FB
:104DD0000F91089580E090E0A5EAB3E480939B05ED
:104DE00090939C05A0939D05B0939E0580E090E86C
:104DF000A3E9B3E480939F059093A005A093A10538
:104E0000B093A205DF91CF911F910F91089580E09B
:104E100090ECA5E5B4E480939B0590939C05A0934A
:104E20009D05B0939E0580E090E0AEE3B4E48093EE
:104E30009F059093A005A093A105B093A205DF91D3
:104E4000CF911F910F91089580E090E0A1EEB3E41F
:104E500080939B0590939C05A0939D05B0939E0520
:104E600080E090E0A8ECB3E480939F059093A005C8
:104E7000A093A105B093A205DF91CF911F910F914F
:104E800008950F931F938C0183E79AE00E94821C80
:104E9000C8016EE142E020E00E943226C80160E2D3
:104EA00070E00E944D2681E01F910F910895EF92CE
:104EB000FF920F931F93F42EE22E03E71AE0C8012E
:104EC0000E949A1BC8016F2D0E94201CC8016E2DE4
:104ED0000E94201CC8010E946D1C1F910F91FF9021
:104EE000EF9008950F931F938C0183E79AE00E943F
:104EF000821CC80169E140E227E20E94572781E055
:104F00001F910F91089508951F920F920FB60F925F
:104F10000BB60F9211242F933F934F938F939F9330
:104F2000EF93FF938091C00082FD2AC04091C6009C
:104F30002091440B3091450B2F5F3F4F2F73307002
:104F40008091460B9091470B2817390759F0E09153
:104F5000440BF091450BEC5FF44F40833093450BCD
:104F60002093440BFF91EF919F918F914F913F912F
:104F70002F910F900BBE0F900FBE0F901F901895A2
:104F80008091C600EFCF08951F920F920FB60F9237
:104F90000BB60F9211242F933F934F938F939F93B0
:104FA000EF93FF938091C80082FD2AC04091CE000C
:104FB0002091CC0B3091CD0B2F5F3F4F2F73307072
:104FC0008091CE0B9091CF0B2817390759F0E091C3
:104FD000CC0BF091CD0BE457F44F40833093CD0BC5
:104FE0002093CC0BFF91EF919F918F914F913F9127
:104FF0002F910F900BBE0F900FBE0F901F90189522
:105000008091CE00EFCF1F920F920FB60F920BB68A
:105010000F9211242F933F934F938F939F93EF936E
:10502000FF938091D00082FD2AC04091D60020914C
:10503000540C3091550C2F5F3F4F2F73307080917F
:10504000560C9091570C2817390759F0E091540CE1
:10505000F091550CEC5EF34F40833093550C209348
:10506000540CFF91EF919F918F914F913F912F9110
:105070000F900BBE0F900FBE0F901F901895809150
:10508000D600EFCF08951F920F920FB60F920BB676
:105090000F9211242F933F934F938F939F93EF93EE
:1050A000FF938091300182FD2AC04091360120910A
:1050B000DC0C3091DD0C2F5F3F4F2F7330708091EF
:1050C000DE0C9091DF0C2817390759F0E091DC0CC9
:1050D000F091DD0CE456F34F40833093DD0C2093C8
:1050E000DC0CFF91EF919F918F914F913F912F9108
:1050F0000F900BBE0F900FBE0F901F9018958091D0
:105100003601EFCFE091300DF091310DE05CFF4FB3
:105110008191919120813181821B930B8F739070CB
:10512000892BD1F5E091520DF091530DE05CFF4FCA
:105130008191919120813181821B930B8F739070AB
:10514000892B39F5E091740DF091750DE05CFF4FFE
:105150008191919120813181821B930B8F7390708B
:10516000892BA1F4E091960DF091970DE05CFF4F33
:105170008191919120813181821B930B8F7390706B
:10518000892B09F408950E94422808950E9429035A
:10519000E9CF0E94C327D6CF0E948327C3CF1F9297
:1051A0000F920FB60F920BB60F9211242F933F93CD
:1051B0008F939F93EF93FF932091880B3091890BEE
:1051C00080918A0B90918B0B2817390709F1E09198
:1051D0008A0BF0918B0BE85BF44F208180918A0B56
:1051E00090918B0B01968F73907090938B0B8093A3
:1051F0008A0B2093C600FF91EF919F918F913F9171
:105200002F910F900BBE0F900FBE0F901F9018950F
:105210008091C1008F7D8093C100EDCF1F920F92CE
:105220000FB60F920BB60F9211242F933F938F93CB
:105230009F93EF93FF932091100C3091110C80916C
:10524000120C9091130C2817390709F1E091120CF8
:10525000F091130CE053F44F20818091120C909147
:10526000130C01968F7390709093130C8093120C13
:105270002093CE00FF91EF919F918F913F912F91BD
:105280000F900BBE0F900FBE0F901F90189580913E
:10529000C9008F7D8093C900EDCF1F920F920FB68A
:1052A0000F920BB60F9211242F933F938F939F93DE
:1052B000EF93FF932091980C3091990C80919A0C68
:1052C00090919B0C2817390709F1E0919A0CF09105
:1052D0009B0CE85AF34F208180919A0C90919B0C83
:1052E00001968F73907090939B0C80939A0C2093EF
:1052F000D600FF91EF919F918F913F912F910F9049
:105300000BBE0F900FBE0F901F9018958091D1008B
:105310008F7D8093D100EDCF1F920F920FB60F9229
:105320000BB60F9211242F933F938F939F93EF937C
:10533000FF932091200D3091210D8091220D9091AD
:10534000230D2817390709F1E091220DF091230D63
:10535000E052F34F20818091220D9091230D019610
:105360008F7390709093230D8093220D20933601BC
:10537000FF91EF919F918F913F912F910F900BBED5
:105380000F900FBE0F901F901895809131018F7D67
:1053900080933101EDCFDF92EF92FF920F931F9335
:1053A000CF93DF93EC017A018B01DD24403081EE55
:1053B000580780E0680780E0780721F1DD24D39466
:1053C000EC89FD8981E090E008A002C0880F991F58
:1053D0000A94E2F7808360E079E08DE390E0A80131
:1053E00097010E94FE382150304040405040569571
:1053F00047953795279580E120303807D0F0DD209C
:10540000C1F0DD24EC89FD89108260E874E88EE14A
:1054100090E0A80197010E94FE38215030404040A2
:105420005040569547953795279580E120303807AD
:1054300030F7E889F9893083EA89FB89208319A24A
:10544000EE89FF89408121E030E0C9010C8C02C067
:10545000880F991F0A94E2F7482B4083EE89FF8951
:105460004081C9010D8C02C0880F991F0A94E2F790
:10547000482B4083EE89FF894081C9010E8C02C010
:10548000880F991F0A94E2F7482B4083EE89FF8921
:1054900080810F8C02C0220F331F0A94E2F72095FF
:1054A00028232083DF91CF911F910F91FF90EF90E0
:1054B000DF900895DC011C96ED91FC911D97E05C56
:1054C000FF4F2191319180819181281B390B2F73DE
:1054D0003070C9010895DC011C96ED91FC911D9777
:1054E000E05CFF4F20813181E054F040DF01AE5B92
:1054F000BF4F8D919C9111972817390749F08D91D5
:105500009C91E80FF91F8081282F30E0C901089590
:105510002FEF3FEFC9010895DC011C96ED91FC913E
:105520001D97E05CFF4F20813181E054F040DF01A6
:10553000AE5BBF4F8D919C9111972817390791F061
:105540008D919C911197E80FF91F20818D919C916D
:10555000119701968F73907011969C938E9330E003
:10556000C90108952FEF3FEFC9010895FC0181A102
:10557000882311F411A20895A489B5898C9186FF1E
:10558000FDCF11A20895CF93DF93EC01AE85BF85C7
:10559000AD01405C5F4FFA01208131812F5F3F4FA9
:1055A0002F733070FD01EE5BFF4F808191812817D2
:1055B0003907D9F3FA0180819181A80FB91F6C9343
:1055C000EE85FF85E05CFF4F31832083EE89FF8904
:1055D000208181E090E00F8C02C0880F991F0A940F
:1055E000E2F7282B208381E089A3EC89FD89808163
:1055F0008064808381E090E0DF91CF9108951F93D4
:105600001092270D1092260D28EE33E040E050E076
:105610002093280D3093290D40932A0D50932B0D84
:105620006CEE75E07093250D6093240D84E09BE093
:105630009093310D8093300D88E49BE09093330D6F
:105640008093320D85EC90E09093350D8093340D6E
:1056500084EC90E09093370D8093360D80EC90E0D1
:105660009093390D8093380D81EC90E090933B0D31
:1056700080933A0D82EC90E090933D0D80933C0D29
:1056800086EC90E090933F0D80933E0D14E01093D4
:10569000400DB3E0B093410DA7E0A093420DF5E0BB
:1056A000F093430DE1E0E093440D1092490D109208
:1056B000480D20934A0D30934B0D40934C0D509361
:1056C0004D0D7093470D6093460D8CE89BE09093D1
:1056D000530D8093520D80ED9BE09093550D809378
:1056E000540D8DEC90E09093570D8093560D8CECFB
:1056F00090E09093590D8093580D88EC90E0909332
:105700005B0D80935A0D89EC90E090935D0D809332
:105710005C0D8AEC90E090935F0D80935E0D8EECB3
:1057200090E09093610D8093600D1093620DB093A3
:10573000630DA093640DF093650DE093660D1092D8
:105740006B0D10926A0D20936C0D30936D0D40938C
:105750006E0D50936F0D7093690D6093680D84E129
:105760009CE09093750D8093740D88E59CE0909378
:10577000770D8093760D85ED90E09093790D809371
:10578000780D84ED90E090937B0D80937A0D80ED01
:1057900090E090937D0D80937C0D81ED90E090934F
:1057A0007F0D80937E0D82ED90E09093810D80932C
:1057B000800D86ED90E09093830D8093820D109381
:1057C000840DB093850DA093860DF093870DE09323
:1057D000880D10928D0D10928C0D20938E0D3093AC
:1057E0008F0D4093900D5093910D70938B0D60939E
:1057F0008A0D8CE99CE09093970D8093960D80EE36
:105800009CE09093990D8093980D85E391E090939F
:105810009B0D80939A0D84E391E090939D0D80936E
:105820009C0D80E391E090939F0D80939E0D81E30A
:1058300091E09093A10D8093A00D82E391E090936D
:10584000A30D8093A20D86E391E09093A50D809324
:10585000A40D1093A60DB093A70DA093A80DF093DF
:10586000A90DE093AA0D1F9108950E9484320E9411
:105870000D070E946D0682E898E2892B29F00E94AC
:1058800082280E946D06FBCF0E946D060E946D0665
:10589000FBCFCF93DF93AC018230910508F456C063
:1058A000E091B50DF091B60D309709F462C0A0E01B
:1058B000B0E020E030E013C048175907E9F12115A6
:1058C000310519F08217930778F4EF01BD012281A9
:1058D0003381DF012115310571F0F9019C018081CF
:1058E00091818417950740F7C90122813381DF0137
:1058F0002115310591F70097E1F1841B950B843058
:10590000910570F46115710521F18A819B81FB017C
:1059100093838283FE013296CF01DF91CF91089568
:10592000FE01E80FF91F41935193029799838883F1
:10593000CF01DF91CF910895109799F082819381E3
:1059400013969C938E9312973296E6CF42E050E0E6
:10595000A7CF8A819B819093B60D8093B50DFE01F0
:10596000DACF828193819093B60D8093B50D3296F4
:10597000D3CF8DB79EB7885790402091A305309123
:10598000A4052817390718F0E0E0F0E0D1CFBC01FA
:10599000621B730B64177507B8F3CA010296681788
:1059A000790790F3820F931F9093A4058093A3052A
:1059B0009093A6058093A505F90141935193B8CF23
:1059C0000F931F93CF93DF939C01009709F449C075
:1059D000AC0142505040FA0113821282C091B50DC1
:1059E000D091B60D209709F46BC0C417D50708F005
:1059F0009BC0AA81BB81109709F494C07C2F6D2FA6
:105A000003C07A2F6B2FDC01A417B50778F5129627
:105A10008D919C9113970097A1F7BD01FB015383D2
:105A2000428321913191E20FF31F4E175F0709F472
:105A300057C0E0E0F0E002C0EC01F9018A819B81EF
:105A40009E010097C9F7AE014E5F5F4F8881998133
:105A5000840F951F2091A3053091A40528173907BD
:105A6000F9F0DF91CF911F910F910895272F362FD5
:105A7000C9018C01BC01FA01B383A2832191319148
:105A8000E20FF31FAE17BF07E1F1012B39F6509378
:105A9000B60D4093B50DDF91CF911F910F910895F1
:105AA000309709F447C013821282425050405093FD
:105AB000A4054093A305DF91CF911F910F91089505
:105AC00080819181820F931F2091A3053091A405BD
:105AD0002817390761F35093B60D4093B50DDBCF0E
