:100000000C94AC020C94D9020C94D9020C94D90231
:100010000C94D9020C94D9020C94D9020C94D902F4
:100020000C94D9020C94D9020C94D9020C94D902E4
:100030000C94D9020C94D9020C94D9020C94D902D4
:100040000C94D9020C94D9020C94D9020C94D902C4
:100050000C94D9020C9460320C94D9020C94E83CB4
:100060000C94D9020C9445340C9491350C94D9021B
:100070000C94D9020C94D9020C94D9020C94D90294
:100080000C94D9020C94D9020C94D9020C94D90284
:100090000C9485340C94D0350C94D9020C94F33024
:1000A0000C94D9020C94D9020C94D9020C94D90264
:1000B0000C94D9020C94D9020C94D9020C94D90254
:1000C0000C94D9020C94D9020C94D9020C94C53426
:1000D0000C940F360C94D9020C9405350C944E36C2
:1000E0000C94D902AC31453145314531453145316A
:1000F00045314531B63145314531453145314531DF
:1001000045314531B63145314531453145314531CE
:1001100045314531BE3145314531453145314531B6
:1001200045314531D2314531453145314531453192
:1001300045314531BE314531453145314531453196
:1001400045314531743145314531453145314531D0
:1001500045314531813145314531453145314531B3
:10016000453145316D3145314531453145314531B7
:100170004531453102324531453145314531453111
:1001800045314531613145314531453145314531A3
:10019000453145318A31453145314531453145316A
:1001A00045314531A3314531453145314531453141
:1001B00045314531A3314531453145314531453131
:1001C00045314531A3314531453145314531453121
:1001D00045314531A3314531453145314531453111
:1001E000453145315831453145314531453145314C
:1001F000453145315D314531453145314531453137
:10020000453145315831453145314531453145312B
:10021000453145315D314531453145314531453116
:1002200045314531DD314531453145314531453186
:10023000453145311B314531453145314531453138
:10024000453145311B314531453145314531453128
:100250004531453130314531453145314531453103
:1002600045314531FC314531453145314531453127
:1002700045314531FC3107634236B79BD8A71A395F
:10028000685618AEBAAB558C1D3CB7CC5763BD6DE4
:10029000EDFD753EF6177231BF000000803F08008B
:1002A0000000BE922449123EABAAAA2ABECDCCCCF5
:1002B0004C3E00000080BEABAAAAAA3E000000008F
:1002C000BF000000803F0000000000084178D3BB61
:1002D0004387D1133D190E3CC3BD4282AD2B3E680E
:1002E000EC8276BED98FE1A93E4C80EFFFBE01C4FF
:1002F000FF7F3F00000000000000210024002700D5
:100300002A002D0030003300010100000401070124
:100310000A0100002200250028002B002E003100D9
:10032000340002010000050108010B01000020005B
:100330002300260029002C002F00320000010000BD
:100340000301060109010505050507050808080858
:10035000020202020A0A080804040404010101015D
:100360000101010103030303030303030407070758
:100370000C0C0C0C0C0C0C0C0202020206060606FD
:10038000060606060B0B0B0B0B0B0B0B01021020CA
:1003900020080810204010204080020102010804BB
:1003A000020101020408102040808040201008044F
:1003B00002018004020180402010080402010804A8
:1003C00002010102040810204080010204081020EC
:1003D00040800000090A02080B0C0D070603040107
:1003E000000000000000000000000000000000000D
:1003F00000000000000000000000000000001110DC
:100400000F000000000000000000000000000000DD
:100410000000000000000000494E46494E49545972
:100420004E414ECDCCCC3D0AD7233C17B7D13877BF
:10043000CC2B329595E6241FB14F0A0000204100D5
:1004400000C84200401C4620BCBE4CCA1B0E5AAE1F
:10045000C59D7400407A10F35A00A0724E1809002E
:1004600010A5D4E80000E87648170000E40B540219
:100470000000CA9A3B000000E1F505000080969854
:1004800000000040420F000000A0860100000010A4
:100490002700000000E803000000006400000000E6
:1004A000000A00000000000100000000002C76D8C7
:1004B00088DC674F0823DFC1DFAE59E1B1B796E5AD
:1004C000E3E453C63AE651997696E8E6C28426EB11
:1004D000898C9B62ED407C6FFCEFBC9C9F40F2BA24
:1004E000A56FA5F490055A2AF75C936B6CF9676DBC
:1004F000C11BFCE0E40D47FEF520E6B500D0ED9011
:100500002E0300943577050080841E080000204EDD
:100510000A000000C80C333333330F986E12831176
:1005200041EF8D2114893BE65516CFFEE6DB18D14D
:10053000844B381BF77C1D901DA4BBE4242032841F
:10054000725E228100C9F124ECA1E53D2700A507D8
:100550006115732FC1379E0711241FBECFEFD1E263
:10056000DEBFCDBF00E00CBF16E0A0E0B2E0ECE0E3
:10057000FBE800E00BBF02C007900D92A437B10763
:10058000D9F71BBE15E1A4E7B6E001C01D92A83261
:10059000B107E1F715E0C6E5D5E004C02297FE01FA
:1005A0000E943345CE34D107C9F70E94F7380C9426
:1005B00079450C940000EF92FF920F931F93F22F56
:1005C000F02E47FD02C0E4E001C0E4E1242F332710
:1005D00027FD309537FF03C0309521953F4F4F2DB4
:1005E000512F0F2FEE2E0E94A1038F2D912F1F91BF
:1005F0000F91FF90EF900895662777270C940305DD
:10060000FC0188279927E89421912032E9F32930C9
:1006100010F02E30C8F32B3241F02D3239F46894AB
:1006200004C00E948303820F911D219120532A3020
:10063000C0F31EF4909581959F4F0895FB01DC0156
:1006400002C001900D9241505040D8F70895FC012E
:100650008191861721F08823D9F79927089531973A
:10066000CF010895FB01DC0101900D920020E1F71C
:100670000895FB01DC014150504048F001900D927B
:100680000020C9F701C01D9241505040E0F7089585
:10069000FB0151915523A9F0BF01DC014D91451794
:1006A0004111E1F759F4CD010190002049F04D913D
:1006B00040154111C9F3FB014111EFCF81E090E0FA
:1006C00001970895FB019F01E8944230C4F0453240
:1006D000B4F44A3029F497FB1EF4909581959F4F0E
:1006E000642F77270E941D45805D8A330CF0895D59
:1006F0008193CB010097A1F716F45DE2519310822C
:10070000C9010C9453077AE0979F902D879F802D05
:10071000910D11240895FB019F01423074F0453280
:1007200064F4642F77270E941D45805D8A330CF0A6
:10073000895D8193CB010097A1F71082C9010C94C8
:100740005307A9E0B0E0E7EAF3E00C9446456A01FC
:10075000122FA02EBE2C2BE3201718F42CE3922E80
:1007600002C0902E9394AE014F5F5F4F27E0092D9A
:100770000E946306BC018981E82EFF24C7018970AD
:100780009070019711F4ADE209C0B1FE02C0ABE276
:1007900005C0B0FC02C0A0E001C0A0E2E3FE3BC087
:1007A000AA2311F423E001C024E0211710F020E077
:1007B00002C0121B212FEB2CB4FE02C0322F0AC044
:1007C000F601322F80E202C0819331503323E1F7EA
:1007D000C20ED11CAA2319F0F601A1936F01F601F4
:1007E0003196E2FE05C09EE4D6019C9381E404C0EC
:1007F0009EE6D6019C9381E611968C939183329666
:10080000DF01832F90E202C09D9381508823E1F79E
:10081000E30FF11D40C0E2FE42C0AA2311F423E021
:1008200001C024E0211710F020E002C0121B212F8C
:10083000EB2CB4FE02C0922F0AC0F601922F80E288
:1008400002C0819391509923E1F7C20ED11CAA23D3
:1008500019F0F601A1936F01F6013196E2FE08C08E
:1008600089E4D6018C938EE411968C9386E407C0BC
:1008700089E6D6018C938EE611968C9386E6818369
:100880003296DF01892F20E202C02D938150882308
:10089000E1F7E90FF11D10822EEF3FEFAFC0161602
:1008A00017061CF041E050E003C0AB014F5F5F4F03
:1008B000AA2019F480E090E003C08A2D90E0019610
:1008C00020E030E0AA2311F021E030E0240F351FB2
:1008D000280F391F812F90E02817390714F020E0E6
:1008E00002C0121B212F4B2D50E0CA018071907065
:1008F000B4FC0DC0B3FC0BC0F601322F40E202C0C5
:10090000419331503323E1F7C20ED11C01C0322F85
:10091000AA2319F0F601A1936F01892B11F0132F6F
:100920000AC0F601132F80E302C0819311501123F6
:10093000E1F7C30ED11C092D060FBA8090E1892E74
:10094000912C8E209F20E4FE04C0F1E3BF1609F431
:100950000150101614F001E003C0093008F008E05F
:100960009B0177FF02C020E030E0CB010196821BA3
:10097000930BFE013196E80FF91F8EE2F82E3B0132
:10098000601A71088A2D90E044275527481B590B9F
:100990008FEF2F3F380719F4D601FD926D016217D2
:1009A00073072CF06216730614F4808101C080E393
:1009B0002150304031962417350724F0D6018D930D
:1009C0006D01E6CF2617370749F4B5E3BB1528F0CC
:1009D000BB1621F48114910409F481E3F60181939B
:1009E000D601812F90E202C09C93815011968823FA
:1009F000D9F7E10FF11D108220E030E0C9012996FE
:100A0000EEE00C946245A0E0B0E0E9E0F5E00C9483
:100A10004845EC015B016115710519F0FB019183FB
:100A20008083F9908F2D90E00E943745892BC9F77C
:100A3000FDE2FF1621F4F990EE24E39405C02BE2C9
:100A4000F21609F4F990EE248E0101501040C8010D
:100A500068E174E043E050E00E943B07892B01F518
:100A60008E010E5F1F4FC8016BE174E045E050E05E
:100A70000E943B07892B19F48E01095F1F4FA114B7
:100A8000B10419F0F50111830083E0FC04C070E0AB
:100A900090E080E814C070E090E080E86FEF08C15B
:100AA000C80160E274E043E050E00E943B07892BFC
:100AB00069F4A114B10429F470E090E080EC6FE7D0
:100AC000F7C02296F501D183C083F6CF88249924FC
:100AD00040E050E060E070E0EF2DE053EA30A0F538
:100AE000F2E0EF2A8E2D90E09C0128703070E2FE3B
:100AF00006C0232B79F50894811C911C2BC0232B55
:100B000019F0089481089108DB01CA0112E0880FEE
:100B1000991FAA1FBB1F1A95D1F7480F591F6A1FAB
:100B20007B1F440F551F661F771F4E0F511D611D00
:100B3000711D483929E9520729E9620729E172073D
:100B400048F084E0E82A06C0EE3F31F4E3FC39C007
:100B500098E0E92AF990C0CFE53311F0E53189F545
:100B600029912D3219F4E0E1EE2A05C02B3219F05B
:100B700081E090E003C0299182E090E0E22FE05311
:100B8000EA3018F0C81BD90B1CC020E030E0FCE0B4
:100B900020383F075CF4C901880F991F880F991FFF
:100BA000280F391F220F331F2E0F311DE991E053FB
:100BB000EA3068F3E4FE03C0309521953F4F820E82
:100BC000931ECE2CDD24E1FE07C0A114B10421F058
:100BD0002197F501D183C083CB01BA010E94E44182
:100BE0007B018C01F3E0CF22DD2423E0C216D10487
:100BF00021F417FB109517F9109557016801C801EA
:100C0000B70120E030E040E050E00E9447418823F7
:100C100009F44AC097FE0DC027E3E22E24E0F22E2D
:100C20009094819491089394C0E2D0E000E010E0A9
:100C300012C09FE4E92E94E0F92EF6CFF70125913A
:100C4000359145915491C601B5010E94F4425B0172
:100C50006C018C1A9D0A8C169D0684F7D595C79554
:100C60000F5F1F4F0630110529F08CEF9FEFE80E44
:100C7000F91EF1CFC501D6017C018D018C2D880FA5
:100C80008D2D881F8F3F51F0C601B50120E030E067
:100C900040E050E00E944741882331F482E290E036
:100CA00090932715809326157E2D9F2D802F612FE1
:100CB000272F392F482F562FB901CA01CDB7DEB7DC
:100CC000ECE00C946445283008F027E03327DA0183
:100CD000990F311D87FD916000966105710539F40A
:100CE00032602E5F3D9330E32A95E1F708959F3FF0
:100CF00030F080387105610509F03C5F3C5F3D9341
:100D0000913008F08068911DDF93CF931F930F936C
:100D1000FF92EF92192F987F9695E92F96959695C9
:100D2000E90FFF27E355FB4F99273327EE24FF24D4
:100D3000A701E70105900894079428F4360FE71EF1
:100D4000F81E491F511D660F771F881F991F0694B3
:100D5000A1F70590079428F4E70EF81E491F561FC7
:100D6000C11D770F881F991F661F0694A1F7059074
:100D7000079428F4F80E491F561FC71FD11D880F6E
:100D8000991F661F771F0694A1F70590079420F41A
:100D9000490F561FC71FD81F990F661F771F881F3F
:100DA0000694A9F784911095177041F0D695C795D0
:100DB00057954795F794E7941A95C1F7E3E5F4E062
:100DC00068941590159135916591959105907FE204
:100DD0007395E118F10A430B560BC90BD009C0F704
:100DE000E10CF11E431F561FC91FD01D7EF4703346
:100DF00011F48A95E6CFE894015030F0080F0AF418
:100E00000027021708F4202F2395022F7A3328F0A9
:100E100079E37D932A95E9F710C07D932A9589F6A9
:100E2000069497956795379517951794E118F10AE9
:100E3000430B560BC90BD00998F023957E917395FF
:100E40007A3308F070E37C932013B8F77E917061D9
:100E50007D9330F0839571E37D9370E32A95E1F7FC
:100E60001124EF90FF900F911F91CF91DF9199275F
:100E700087FD90950895FB01DC014150504088F0BA
:100E80008D9181341CF08B350CF4805E659161345A
:100E90001CF06B350CF4605E861B611171F3990BCD
:100EA0000895881BFCCFDC01FC01672F719177232B
:100EB000E1F7329704C07C916D9370836291AE1715
:100EC000BF07C8F3089508958130910531F0892B4B
:100ED00019F46F5F7F4F69F108956F5F7F4FE1F7FE
:100EE00084E796E00E9486146091F6047091F704FE
:100EF0008FE896E00E94611F8CEC96E00E94A8218A
:100F00008FED96E045E657E260E070E00E9419241C
:100F100085EE96E049E350E360E070E00E94EA2845
:100F20008DEF96E041E354ED60E070E00E94E02830
:100F3000089584E796E00E949914089580E090E077
:100F40006FEF7FEF0E946407089581E090E06FEFFC
:100F50007FEF0E94640708952F923F924F925F9215
:100F60006F927F928F929F92AF92BF92CF92DF92B9
:100F7000EF92FF920F931F93DF93CF93CDB7DEB71E
:100F8000C755D1400FB6F894DEBF0FBECDBF8091DC
:100F9000F2049091F30460E072E00E94A33C00919F
:100FA000F2041091F3048DE997E067E870E00E9485
:100FB000042DBC01C8014AE050E00E94753C8091BC
:100FC000F2049091F30463E172E00E94A33C00916B
:100FD000F2041091F30484E298E067EE70E00E945E
:100FE000042DBC01C8014AE050E00E94753C80918C
:100FF000F2049091F3046AE172E00E94A33C009134
:10100000F2041091F3048BE099E067EE70E00E9427
:10101000042DBC01C8014AE050E00E94753C80915B
:10102000F2049091F30462E272E00E94A33C00910A
:10103000F2041091F30482EF99E067E071E00E94FE
:10104000042DBC01C8014AE050E00E94753C80912B
:10105000F2049091F30469E272E00E94A33C0091D3
:10106000F2041091F30489EF9AE067EE70E00E94B9
:10107000042DBC01C8014AE050E00E94753C8091FB
:10108000F2049091F30460E372E00E94A33C0091AB
:10109000F2041091F30480EE9BE067EE70E00E9492
:1010A000042DBC01C8014AE050E00E94753C8091CB
:1010B000F2049091F30467E372E00E94A33C009174
:1010C000F2041091F30487EC9CE067EE70E00E945C
:1010D000042DBC01C8014AE050E00E94753C80919B
:1010E000F2049091F3046EE372E00E94A33C00913D
:1010F000F2041091F3040E94E12CBC01C8014AE003
:1011000050E00E94863C0E94303D609183077091C0
:101110008407809185079091860745E022E08E0143
:10112000085F1F4F0E94DB0260917B0770917C0774
:1011300080917D0790917E0748E022E08E01085E55
:101140001F4F0E94DB0260917307709174078091BA
:1011500075079091760744E022E08E01085D1F4FED
:101160000E94DB02609113077091140780911507AC
:101170009091160744E022E08E01085C1F4F0E9408
:10118000DB0260911B0770911C0780911D079091F5
:101190001E0744E022E08E01085B1F4F0E94DB0225
:1011A000609123077091240780912507909126076D
:1011B00044E022E08E01085A1F4F0E94DB0260913A
:1011C0002B0770912C0780912D0790912E0744E0FA
:1011D00022E08E0108591F4F0E94DB026091330705
:1011E00070913407809135079091360744E022E0F2
:1011F0008E0108581F4F0E94DB0260913B077091DF
:101200003C0780913D0790913E0738E8232E312C12
:101210002C0E3D1E44E022E081010E94DB02609121
:10122000430770914407809145079091460728E94C
:10123000422E512C4C0E5D1E44E022E082010E94A1
:10124000DB0260914B0770914C0780914D079091A4
:101250004E0708EA602E712C6C0E7D1E44E022E0E1
:1012600083010E94DB0260915307709154078091C3
:1012700055079091560718EB812E912C8C0E9D1ED0
:1012800044E022E084010E94DB0260915B077091E0
:101290005C0780915D0790915E07B8ECAB2EB12C96
:1012A000AC0EBD1E44E022E085010E94DB0260918D
:1012B0006307709164078091650790916607A8EDB8
:1012C000CA2ED12CCC0EDD1E44E022E086010E9405
:1012D000DB0260916B0770916C0780916D079091B4
:1012E0006E07F8EEEF2EF12CEC0EFD1E44E022E02E
:1012F00087010E94DB0260918F07709190078091B7
:1013000091079091920744E022E08E0108501F4F10
:101310000E94DB02CE01019666E472E00E94C240A8
:10132000CE010196BE01685F7F4F0E947840CE01DA
:1013300001966CE20E946440CE010196BE01685C99
:101340007F4F0E947840CE0101966CE20E9464407B
:10135000CE010196BE01685B7F4F0E947840CE01AE
:1013600001966CE20E946440CE010196BE01685A6B
:101370007F4F0E947840CE0101966CE20E9464404B
:10138000CE010196BE0168597F4F0E947840CE0180
:1013900001966CE20E946440CE010196BE0168583D
:1013A0007F4F0E947840CE0101966CE20E9464401B
:1013B000CE010196B1010E947840CE0101966CE207
:1013C0000E946440CE010196B2010E947840CE0195
:1013D00001966CE20E946440CE010196B3010E9426
:1013E0007840CE0101966CE20E946440CE010196E5
:1013F000B4010E947840CE0101966CE20E946440E4
:10140000CE010196B5010E947840CE0101966CE2B2
:101410000E946440CE010196B6010E947840CE0140
:1014200001966CE20E946440CE010196B7010E94D1
:101430007840CE0101966CE20E946440CE01019694
:10144000BE01685D7F4F0E947840CE0101966CE23C
:101450000E946440CE010196BE01685E7F4F0E94EB
:101460007840CE0101966CE20E946440609187074B
:1014700070918807CE0101960E940740CE01019627
:101480006CE20E9464406091890770918A07CE01E6
:1014900001960E940740CE0101966CE20E946440D2
:1014A00060918B0770918C07CE0101960E940740D6
:1014B000CE0101966CE20E94644060918D077091AC
:1014C0008E07CE0101960E940740CE0101966CE284
:1014D0000E946440CE010196B8010E947840CE017E
:1014E00001966CE20E9464406091BA06CE010196BA
:1014F00070E00E9407408091BA068823D9F5CE019A
:1015000001966AE472E00E947840CE0101966DE790
:101510000E9464408091F2049091F304BE016F5FD9
:101520007F4F0E94CC3B8091F4049091F504BE0162
:101530006F5F7F4F0E94CC3BCE0101960E94DC4042
:10154000C95ADE4F0FB6F894DEBF0FBECDBFCF91A4
:10155000DF911F910F91FF90EF90DF90CF90BF90A0
:10156000AF909F908F907F906F905F904F903F9043
:101570002F9008956091930770919407809195073B
:1015800090919607E8E06E2EE1E07E2E6C0E7D1EB7
:101590004AE026E083010E94DB0260919707709188
:1015A00098078091990790919A0758E1852E51E00C
:1015B000952E8C0E9D1E4AE026E084010E94DB02DF
:1015C0006091A7067091A8068091A9069091AA063D
:1015D00048E2A42E41E0B42EAC0EBD1E46E022E04F
:1015E00085010E94DB026091AB067091AC06809190
:1015F000AD069091AE0638E3C32E31E0D32ECC0E6B
:10160000DD1E46E022E086010E94DB026091A30617
:101610007091A4068091A5069091A60628E4E22E7A
:1016200021E0F22EEC0EFD1E46E022E087010E9432
:10163000DB02CE0101966CE20E946440CE0101966D
:10164000B3010E947840CE0101966CE20E94644092
:10165000CE010196B4010E947840CE0101966CE261
:101660000E946440CE010196B5010E947840CE01EF
:1016700001966CE20E946440CE010196B6010E9480
:101680007840CE0101966CE20E946440CE01019642
:10169000B7010E947840CE0101966CE20E9464403E
:1016A0006091BC06CE01019670E00E940740CE0119
:1016B00001966CE20E946440CE0101966091920610
:1016C0000E943840CE0101966DE20E946440CE0136
:1016D0000196609193060E943840CE0101966DE21A
:1016E0000E946440CE010196609194060E943840A9
:1016F000CE0101966FE50E946440CE010196609193
:101700008F060E943840CE0101966AE30E94644031
:10171000CE010196609190060E943840CE0101965C
:101720006AE30E946440CE010196609191060E9496
:101730003840CE0101966EE20E94644060919506A9
:1017400070919606CE0101960E94DA3FDECEEF92AE
:10175000FF920F931F93E0901515F09016158DE9E9
:1017600097E067E870E040E423E53EE000E010E049
:101770000E94932E6AE070E080E090E00E94653D58
:1017800084E298E067EE70E040E42FE831E10E94E7
:10179000932E6AE070E080E090E00E94653D8BE06F
:1017A00099E067EE70E040E424E83FE00E94932E69
:1017B0006AE070E080E090E00E94653D82EF99E091
:1017C00067E071E040E42DED32E10E94932E6AE083
:1017D00070E080E090E00E94653D89EF9AE067EE5E
:1017E00070E040E422E33CE00E94932E6AE070E067
:1017F00080E090E00E94653D80EE9BE067EE70E047
:1018000040E42FEC32E10E94932EC7018857964F97
:101810000E94852E87EC9CE067EE70E04FE72EE19A
:101820003CE00E94932E0E94AC0780911515909188
:10183000161580539C4F0E94852EF5CFCF93DF93D2
:10184000C0911515D0911615C053DC4F8091F4044A
:101850009091F50461E572E00E94C23CCE010E94C5
:10186000852EF2CFAF92BF92CF92DF92EF92FF928E
:101870000F931F93E091F604F091F704A081B181DA
:1018800014962D913C911597CF01F9011995892B4B
:1018900091F1E091F604F091F704A081B1811696E0
:1018A0002D913C911797CF01F9011995282F8A3076
:1018B00071F080919B0790919C07FC01E450FB4FD5
:1018C0002083019690939C0780939B07D3CFE09150
:1018D0009B07F0919C07E450FB4F10828FE896E045
:1018E0006CEF74E00E94771F882371F410929C07BC
:1018F00010929B07BFCF80911515909116158053BC
:101900009C4F0E94852EB6CFE0909706F0909806E7
:101910000091990610919A06C801B70120E030E0C5
:1019200048EC52E40E9428429B01AC01CA01B90173
:1019300020E030E040E752E40E944B415B016C0143
:10194000C801B7010E94B341DC01CB0164E670E03D
:101950000E94CD44882777FD8095982F0E94E6410C
:101960009B01AC01C601B5010E94E340609393075F
:101970007093940780939507909396072091B706EC
:10198000233509F450C0233709F44DC0E0909B067D
:10199000F0909C0600919D0610919E06C801B7012B
:1019A00020E030E048EC52E40E9428429B01AC0168
:1019B000CA01B90120E030E040E752E40E944B4107
:1019C0005B016C01C801B7010E94B341DC01CB018E
:1019D00064E670E00E94CD44882777FD8095982FBB
:1019E0000E94E6419B01AC01C601B5010E94E340A3
:1019F00060939707709398078093990790939A073D
:101A00002091B806273519F0273709F06FCFDC0190
:101A1000CB01B0588093970790939807A0939907AC
:101A2000B0939A0763CFDC01CB01B0588093930742
:101A300090939407A0939507B0939607A7CFAF9282
:101A4000BF92CF92DF92EF92FF920F931F938EE39C
:101A50000E94F23DAA2797FDA095BA2FBC01CD01A7
:101A60000E94E64120E030E44CE950E40E94F44258
:101A700020E030E040ED50E40E944B417B018C01BE
:101A800060930F07709310078093110790931207CC
:101A9000A0901307B0901407C0901507D0901607B8
:101AA000C601B501A80197010E94E2402DEC3CEC73
:101AB0004CEC5DE30E94F4429B01AC01C601B50110
:101AC0000E94E34020E030E040E45FE30E94F44203
:101AD0005B016C01C801B70120E030E040E85EE343
:101AE0000E94F4429B01AC01C601B5010E94E34093
:101AF000609313077093140780931507909316074C
:101B00008091130790911407A0911507B0911607C3
:101B10008FE30E94F23DAA2797FDA095BA2FBC0142
:101B2000CD010E94E64120E030E44CE950E40E94FF
:101B3000F44220E030E040ED50E40E944B417B0154
:101B40008C0160931707709318078093190790937F
:101B50001A07A0901B07B0901C07C0901D07D090DB
:101B60001E07C601B501A80197010E94E2402DECB5
:101B70003CEC4CEC5DE30E94F4429B01AC01C601DD
:101B8000B5010E94E34020E030E040E45FE30E94C2
:101B9000F4425B016C01C801B70120E030E040E88D
:101BA0005EE30E94F4429B01AC01C601B5010E94B4
:101BB000E34060931B0770931C0780931D0790936D
:101BC0001E0780911B0790911C07A0911D07B091E3
:101BD0001E0780E40E94F23DAA2797FDA095BA2F28
:101BE000BC01CD010E94E64120E030E44CE950E424
:101BF0000E94F44220E030E040ED50E40E944B416E
:101C00007B018C0160931F0770932007809321074D
:101C100090932207A0902307B0902407C090250737
:101C2000D0902607C601B501A80197010E94E240A5
:101C30002DEC3CEC4CEC5DE30E94F4429B01AC01CA
:101C4000C601B5010E94E34020E030E040E45FE3DC
:101C50000E94F4425B016C01C801B70120E030E052
:101C600040E85EE30E94F4429B01AC01C601B5016D
:101C70000E94E34060932307709324078093250715
:101C8000909326078091230790912407A091250720
:101C9000B09126071F910F91FF90EF90DF90CF90AA
:101CA000BF90AF900895CF93DF93C0911515D09159
:101CB0001615CF59DF4F0E941F0DCE010E94852EB1
:101CC000F8CF0F931F930FE816E0C80162E672E0A9
:101CD0000E94711FC80164E972E00E94711FC8016F
:101CE00065EA72E00E94711F8091F2049091F30402
:101CF00064EB72E00E94C23C1F910F910895AF9275
:101D0000BF92CF92DF92EF92FF920F931F938CECD2
:101D100096E00E947E22E090CC06F090CD060091E5
:101D2000CE061091CF06E0925707F0925807009325
:101D3000590710935A07A0905B07B0905C07C090BA
:101D40005D07D0905E07C601B501A80197010E940A
:101D5000E2402DEC3CEC4CEC5DE30E94F4429B0134
:101D6000AC01C601B5010E94E34020E030E040E054
:101D70005FE30E94F4425B016C01C801B70120E0FF
:101D800030E040E05FE30E94F4429B01AC01C601F9
:101D9000B5010E94E34060935B0770935C078093FA
:101DA0005D0790935E0780915B0790915C07A0911F
:101DB0005D07B0915E07E090D006F090D1060091EB
:101DC000D2061091D306E0925F07F092600700936D
:101DD000610710936207A0906307B0906407C090FA
:101DE0006507D0906607C601B501A80197010E945A
:101DF000E2402DEC3CEC4CEC5DE30E94F4429B0194
:101E0000AC01C601B5010E94E34020E030E040E0B3
:101E10005FE30E94F4425B016C01C801B70120E05E
:101E200030E040E05FE30E94F4429B01AC01C60158
:101E3000B5010E94E3406093630770936407809349
:101E40006507909366078091630790916407A0915E
:101E50006507B0916607E090D406F090D506009132
:101E6000D6061091D706E0926707F09268070093B4
:101E7000690710936A07A0906B07B0906C07C09039
:101E80006D07D0906E07C601B501A80197010E94A9
:101E9000E2402DEC3CEC4CEC5DE30E94F4429B01F3
:101EA000AC01C601B5010E94E34020E030E040E013
:101EB0005FE30E94F4425B016C01C801B70120E0BE
:101EC00030E040E05FE30E94F4429B01AC01C601B8
:101ED000B5010E94E34060936B0770936C07809399
:101EE0006D0790936E0780916B0790916C07A0919E
:101EF0006D07B0916E071F910F91FF90EF90DF90EB
:101F0000CF90BF90AF900895CF93DF93C0911515F8
:101F1000D0911615CF59DF4F0E947F0ECE010E943F
:101F2000852EF8CF8F929F92AF92BF92CF92DF9281
:101F3000EF92FF920F931F93DF93CF93CDB7DEB74E
:101F4000A4970FB6F894DEBF0FBECDBF8DEF96E01D
:101F50004E010894811C911CB4010E941C2BED8839
:101F6000FE880F89188DE0922707F09228070093CA
:101F7000290710932A07A0902B07B0902C07C09038
:101F80002D07D0902E07C601B501A80197010E9428
:101F9000E2402DEC3CEC4CEC5DE30E94F4429B01F2
:101FA000AC01C601B5010E94E34020E030E040E012
:101FB0005FE30E94F4425B016C01C801B70120E0BD
:101FC00030E040E05FE30E94F4429B01AC01C601B7
:101FD000B5010E94E34060932B0770932C07809318
:101FE0002D0790932E0780912B0790912C07A0919D
:101FF0002D07B0912E07E98CFA8C0B8D1C8DE09289
:102000002F07F09230070093310710933207A0900A
:102010003307B0903407C0903507D0903607C6011B
:10202000B501A80197010E94E2402DEC3CEC4CEC7C
:102030005DE30E94F4429B01AC01C601B5010E9420
:10204000E34020E030E040E05FE30E94F4425B01C7
:102050006C01C801B70120E030E040E05FE30E947E
:10206000F4429B01AC01C601B5010E94E3406093BC
:102070003307709334078093350790933607809128
:10208000330790913407A0913507B0913607ED8C56
:10209000FE8C0F8D18A1E0923707F092380700935D
:1020A000390710933A07A0903B07B0903C07C090C7
:1020B0003D07D0903E07C601B501A80197010E94D7
:1020C000E2402DEC3CEC4CEC5DE30E94F4429B01C1
:1020D000AC01C601B5010E94E34020E030E040E0E1
:1020E0005FE30E94F4425B016C01C801B70120E08C
:1020F00030E040E05FE30E94F4429B01AC01C60186
:10210000B5010E94E34060933B0770933C078093C6
:102110003D0790933E0780913B0790913C07A0912B
:102120003D07B0913E0785EE96E0B4010E94032A78
:10213000ED88FE880F89188DE0923F07F0924007E6
:102140000093410710934207A0904307B0904407C3
:10215000C0904507D0904607C601B501A801970178
:102160000E94E2402DEC3CEC4CEC5DE30E94F4421A
:102170009B01AC01C601B5010E94E34020E030E0C4
:1021800040E05FE30E94F4425B016C01C801B701CB
:1021900020E030E040E05FE30E94F4429B01AC01AC
:1021A000C601B5010E94E340609343077093440762
:1021B0008093450790934607809143079091440789
:1021C000A0914507B0914607E98CFA8C0B8D1C8DC8
:1021D000E0924707F09248070093490710934A0797
:1021E000A0904B07B0904C07C0904D07D0904E0781
:1021F000C601B501A80197010E94E2402DEC3CEC1C
:102200004CEC5DE30E94F4429B01AC01C601B501B8
:102210000E94E34020E030E040E05FE30E94F442AF
:102220005B016C01C801B70120E030E040E05FE3F2
:102230000E94F4429B01AC01C601B5010E94E3403B
:1022400060934B0770934C0780934D0790934E0714
:1022500080914B0790914C07A0914D07B0914E078C
:10226000ED8CFE8C0F8D18A1E0924F07F092500775
:102270000093510710935207A0905307B090540752
:10228000C0905507D0905607C601B501A801970127
:102290000E94E2402DEC3CEC4CEC5DE30E94F442E9
:1022A0009B01AC01C601B5010E94E34020E030E093
:1022B00040E05FE30E94F4425B016C01C801B7019A
:1022C00020E030E040E05FE30E94F4429B01AC017B
:1022D000C601B5010E94E340609353077093540711
:1022E0008093550790935607809153079091540718
:1022F000A0915507B0915607A4960FB6F894DEBF8B
:102300000FBECDBFCF91DF911F910F91FF90EF9046
:10231000DF90CF90BF90AF909F908F900895CF9314
:10232000DF93C0911515D0911615CF59DF4F0E943C
:10233000920FCE010E94852EF8CF2F923F924F929E
:102340005F926F927F928F929F92AF92BF92CF9245
:10235000DF92EF92FF920F931F93DF93CF93CDB74E
:10236000DEB7A8970FB6F894DEBF0FBECDBF4FED16
:10237000242E46E0342EC101BE016B5F7F4F0E94C8
:10238000FC27C101BE016F5F7F4F0E942A25498C47
:102390005A8C6B8C7C8C40927707509278076092B5
:1023A000790770927A07E0907B07F0907C070091A4
:1023B0007D0710917E07C801B701A30192010E9419
:1023C000E2402DEC3CEC4CEC5DE30E94F4429B01BE
:1023D000AC01C801B7010E94E34020E030E040E0DA
:1023E0005FE30E94F4427B018C01C301B20120E053
:1023F00030E040E05FE30E94F4429B01AC01C80181
:10240000B7010E94E34060937B0770937C07809341
:102410007D0790937E0780917B0790917C07A09128
:102420007D07B0917E07C980DA80EB80FC80C09286
:102430006F07D0927007E0927107F0927207809058
:10244000730790907407A0907507B0907607C50148
:10245000B401A70196010E94E2402DEC3CEC4CEC4B
:102460005DE30E94F4429B01AC01C501B4010E94EE
:10247000E34020E030E040E05FE30E94F4424B01A3
:102480005C01C701B60120E030E040E05FE30E945C
:10249000F4429B01AC01C501B4010E94E34060938A
:1024A00073077093740780937507909376078091F4
:1024B000730790917407A0917507B09176074091CA
:1024C000F8045091F9046091FA047091FB04C10181
:1024D000930182010E9472247B018C0160937F072B
:1024E000709380078093810790938207A090830761
:1024F000B0908407C0908507D0908607C601B501CB
:10250000A80197010E94E2402DEC3CEC4CEC5DE30D
:102510000E94F4429B01AC01C601B5010E94E34058
:1025200020E030E040E05FE30E94F4425B016C0198
:10253000C801B70120E030E040E05FE30E94F442D0
:102540009B01AC01C601B5010E94E3406093830783
:102550007093840780938507909386078091830703
:1025600090918407A0918507B0918607A8960FB631
:10257000F894DEBF0FBECDBFCF91DF911F910F91B9
:10258000FF90EF90DF90CF90BF90AF909F908F9093
:102590007F906F905F904F903F902F900895CF93D2
:1025A000DF93C0911515D0911615C053DC4F0E94D2
:1025B0009D11CE010E94852EF8CFCF93DF93C0915D
:1025C0001515D0911615CF59DF4F0E949D11CE01E0
:1025D0000E94852EF8CF8DE061E00E94273E88E0C2
:1025E00061E00E94273E8AE261E00E94273E8BE282
:1025F00061E00E94273E8CE261E00E94273E8DE26E
:1026000061E00E94273E80E361E00E94273E8091C6
:10261000F2049091F3046AEC72E00E94C23C0895C7
:102620008091F4049091F50440E051EE60E070E098
:102630000E948D368091F6049091F70440E855E2AF
:1026400060E070E00E948D368091F2049091F30476
:1026500040E051EE60E070E00E948D368091F2041F
:102660009091F30460EE72E00E94C23C0895FF92E4
:102670000F931F93CF93DF938C01F62E662309F0FF
:10268000F894C0E0D0E0C017D1076CF0FF2009F14A
:1026900068E873E180E090E00E94653DC0E0D0E032
:1026A000C017D1079CF78DE061E00E94E93E6CE223
:1026B00071E080E090E00E94653D8DE060E00E9466
:1026C000E93E6CE271E080E090E00E94653D219679
:1026D000DACFDF91CF911F910F91FF9008958CEC8D
:1026E00096E060E070E04BE60E94BD23882329F16C
:1026F00080E090E0A0E0B0E080935B0790935C07FF
:10270000A0935D07B0935E0780936307909364077F
:10271000A0936507B093660780936B0790936C074F
:10272000A0936D07B0936E078091F2049091F3042B
:102730006AE173E00E94C23C08958091F404909194
:10274000F50469EF72E00E94C23C85E090E061E030
:102750000E94371308958DEF96E00E94D02C8823B5
:1027600009F451C085EE96E00E949F2C8823E9F180
:1027700080E090E0A0E0B0E080932B0790932C07DE
:10278000A0932D07B0932E078093330790933407BF
:10279000A0933507B093360780933B0790933C078F
:1027A000A0933D07B0933E0780934307909344075F
:1027B000A0934507B093460780934B0790934C072F
:1027C000A0934D07B0934E078093530790935407FF
:1027D000A0935507B09356078091F2049091F304AB
:1027E0006AE873E00E94C23C08958091F4049091DD
:1027F000F50461E673E00E94C23C84E090E061E091
:102800000E94371308958091F4049091F50461E3D8
:1028100073E00E94C23C83E090E061E00E943713C5
:1028200008958FED96E060E070E00E944D288823C7
:1028300069F48091F2049091F30461EC73E00E94DA
:10284000C23C82E090E061E00E94371380E090E0BB
:10285000A0E0B0E080937B0790937C07A0937D0776
:10286000B0937E078093730790937407A0937507C6
:10287000B09376078093830790938407A09385078E
:10288000B09386078091F2049091F30467EE73E0B1
:102890000E94C23C08950E9410130E94EB1280E037
:1028A00090E0A0E0B0E08093130790931407A0930A
:1028B0001507B093160780931B0790931C07A093EE
:1028C0001D07B0931E078093230790932407A093BE
:1028D0002507B09326070E9411140E94AB130E9493
:1028E0006F130E94610E8091F2049091F30463E0F3
:1028F00074E00E94C23C6AEF70E080E090E00E94C9
:10290000653D87EA9BE00E94212DFFCFFC011382E9
:10291000128288EE93E0A0E0B0E084839583A683E2
:10292000B78381E196E091838083128E118E1486A5
:102930000895FC0181E196E0918380830895DF93FF
:10294000CF930F92CDB7DEB7FC016983A081B1812F
:1029500012962D913C911397BE016F5F7F4F41E01E
:1029600050E0F90119950F90CF91DF910895DC01A6
:102970005996ED91FC915A973097E1F0238934896B
:102980004589568982859385A485B585281B390B91
:102990004A0B5B0B2030B0E83B07B0E04B07B0E0E0
:1029A0005B0710F4C90108952FEF3FE740E050E0C6
:1029B000C901089520E030E0C9010895FC01818D2E
:1029C000928D009711F00E9480180895DF93CF93A5
:1029D0000F92CDB7DEB7FC01818D928D009749F043
:1029E000BE016F5F7F4F41E050E00E94CF1801971A
:1029F00039F02FEF3FEFC9010F90CF91DF9108958C
:102A00008981282F30E0C9010F90CF91DF9108957F
:102A1000EF92FF920F931F93DF93CF930F92CDB757
:102A2000DEB77C01DC0159968D919C915A970097F5
:102A3000A1F0BE016F5F7F4F41E050E00E94CF18D0
:102A4000019771F00FEF1FEFC8010F90CF91DF9149
:102A50001F910F91FF90EF90089500E010E0F4CFE8
:102A60008981082F10E0D7015996ED91FC915A9772
:102A70004285538564857585415050406040704063
:102A8000CF010E94B717E0CFCF93DF93EC01E98D20
:102A9000FA8D309761F013821282CF010E94521A90
:102AA0009C01E98DFA8D82819381892B31F081E03F
:102AB00090E09B838A8320E030E0C901DF91CF91D1
:102AC00008951092B30D1092B40D1092B70D10929C
:102AD000B90D82E090E0A0E0B0E08093BA0D909351
:102AE000BB0DA093BC0DB093BD0D1092D10D1092F3
:102AF000DB0D1092DA0D81E296E09093D90D809370
:102B0000D80D1092DD0D0895FF920F931F93CF9370
:102B1000DF938B010E94303DEB01FF24FA94FEBC51
:102B20000DB407FEFDCF8EB58F3F71F00E94303D92
:102B30006C1B7D0B6017710790F380E0DF91CF91E4
:102B40001F910F91FF90089581E0DF91CF911F9128
:102B50000F91FF900895FC01848160E00E94E93E9E
:102B60000895FC01848161E00E94E93E0895DC0142
:102B70006EBDFA0120E030E00DB407FEFDCF80818C
:102B80008EBD0DB407FEFDCF81818EBD2E5F3F4F00
:102B9000329682E02030380779F70DB407FEFDCF7A
:102BA0008FEF8EBD0DB407FEFDCF8FEF8EBD0DB440
:102BB00007FEFDCF8FEF8EBD0DB407FEFDCF8EB5A6
:102BC0001A968C931A978F71853049F081E115968A
:102BD0008C931597CD010E94B11580E0089581E096
:102BE0000895FF920F931F93CF93DF93EC010E9400
:102BF000303D8B01FF24FA94FEBC0DB407FEFDCFDF
:102C00008EB58A878F3F99F40E94303D601B710B0F
:102C10006D52714088F38FE08D83CE010E94B11513
:102C200080E0DF91CF911F910F91FF9008958E3F2B
:102C300019F08DE08D83F1CF81E0F3CFCF93DF9357
:102C4000EC018E81882309F18FEF8EBD8F819885ED
:102C50009C012F5F3F4F38872F838150924070F443
:102C60004FEF0DB407FEFDCF4EBD2F5F3F4FC901A3
:102C7000019781509240A8F338872F830DB407FE47
:102C8000FDCFCE010E94B1151E82DF91CF91089534
:102C9000DF92EF92FF920F931F93CF93DF93EC019C
:102CA000D62E79018A010E941E16CE010E94AB1514
:102CB000CE016CE271E00E9484158D2D80648EBD82
:102CC0000DB407FEFDCF28E130E0D801C701022E88
:102CD00004C0B695A795979587950A94D2F78EBDAF
:102CE0000DB407FEFDCF285030408FEF283F380746
:102CF00061F7DD20D1F485E98EBD0DB407FEFDCF6F
:102D000090E02FEF2EBD0DB407FEFDCF8EB587FDF1
:102D100009C08A87DF91CF911F910F91FF90EF90AB
:102D2000DF900895915071F7F4CF88E0D81611F430
:102D300087E8E2CF8FEFE0CFCF92DF92EF92FF9262
:102D40000F931F93CF93DF93EC017A018B016901FD
:102D5000411551056105710579F482E18D83CE013C
:102D60000E94B11580E0DF91CF911F910F91FF90EC
:102D7000EF90DF90CF9008958B85833039F029E074
:102D8000EE0CFF1C001F111F2A95D1F7CE0168E140
:102D9000A80197010E944816882319F084E08D83CA
:102DA000DECFCE016EEFA6010E94B7158823B9F2DF
:102DB000CE0168E572E00E948415882319F485E14C
:102DC0008D83CDCFCE016DE020E030E040E050E0DB
:102DD0000E944816882319F084E18D83C0CF8FEFBD
:102DE0008EBD0DB407FEFDCF8EB58823A9F7CE01A9
:102DF0000E94B11581E0B7CF8F929F92AF92BF92A0
:102E0000CF92DF92EF92FF920F931F93CF93DF93B6
:102E1000EC015A016B0149010115110509F47FC04C
:102E2000C801820F931F81509240E0F48E81882365
:102E300009F077C0A882B982CA82DB828B85833091
:102E400039F069E0AA0CBB1CCC1CDD1C6A95D1F7DB
:102E5000CE0161E1A60195010E944816882399F0F0
:102E600083E08D83CE010E94B11580E0DF91CF9188
:102E70001F910F91FF90EF90DF90CF90BF90AF9098
:102E80009F908F900895CE010E94F115882351F3F1
:102E900018861F8281E08E8320E030E08FEF8EBDA8
:102EA00028153905A8F4C9014FEF0DB407FEFDCF71
:102EB0004EBD019688159905C0F30894811C911C9C
:102EC000820E931E20953095280D391D38872F834B
:102ED000D801119789F020E030E09FEF0DB407FE94
:102EE000FDCF8EB5F701E20FF31F80839EBD2F5FEC
:102EF0003F4F2A173B0790F30DB407FEFDCF8EB569
:102F0000AE0DBF1D8C932F813885200F311F388760
:102F10002F8389858823B1F02050324098F481E0D6
:102F2000A5CF88819981AA81BB8184179507A607BF
:102F3000B70709F07FCF2F8138858216930608F0F6
:102F4000ADCF78CFCE010E941E1681E08FCFEF92D9
:102F5000FF920F931F93790120E030E000E012E030
:102F60000E94FC161F910F91FF90EF9008956F92B1
:102F70007F928F929F92AF92BF92CF92DF92EF9209
:102F8000FF920F931F93CF93DF93EC015A016B01D4
:102F90002D81222349F08B899C89AD89BE898417B4
:102FA0009507A607B70780F480E0DF91CF911F91C6
:102FB0000F91FF90EF90DF90CF90BF90AF909F90D8
:102FC0008F907F906F900895223009F45CC0A11417
:102FD000B104C104D10409F466C02A853B854C853F
:102FE0005D85EB8DFC8D858590E009962150304004
:102FF0004040504039014A01082E04C096948794FD
:10300000779467940A94D2F72F5F3F4F4F4F5F4FEB
:103010000894A108B108C108D1088601750104C04F
:1030200016950795F794E7948A95D2F70894A11C12
:10303000B11CC11CD11CE614F7040805190548F59C
:103040008F89988DA98DBA8D8E839F83A887B98724
:1030500086E0882E912C8C0E9D1EE114F104010552
:10306000110589F04E815F81688579858B8D9C8DF6
:1030700094010E94571D0894E108F1080109110903
:10308000882359F791CFAA86BB86CC86DD8681E05E
:103090008CCF211531054105510591F2E618F7084D
:1030A00008091909D5CF1E821F82188619861A862B
:1030B0001B861C861D8681E078CFCF93DF93EC01C1
:1030C000462F6E857F85888999890E94781C882380
:1030D00089F08A89282F30E0220F331F22953295FC
:1030E000307F3227207F32272750324FC901DF91AE
:1030F000CF91089520E030E0C901DF91CF9108958C
:103100000F931F93CF93DF93EC018D81882351F0B0
:103110008C8187FD0DC00E943A1CDF91CF911F91D9
:103120000F91089580E0DF91CF911F910F91089545
:10313000CE0161E00E945D188C01009799F38D81AA
:10314000823018F18F89988DF801938F828F8F8943
:10315000988DA98DBA8DCD01AA27BB27958B848B1D
:10316000E091F70DF091F80D309759F0B8016A5ED3
:103170007F4FC80148961995F801808D918D938BEA
:10318000828B8C818F778C83C6CF8B899C89AD890C
:10319000BE89F801848F958FA68FB78FD3CF2F92DA
:1031A0003F924F925F926F927F928F929F92AF92D7
:1031B000BF92CF92DF92EF92FF920F931F93DF9314
:1031C000CF9300D00F92CDB7DEB76C015C834B83F9
:1031D000DC011596EC911597EE2321F014968C9155
:1031E00080FD1AC04FEF5FEFCA010F900F900F9054
:1031F0000F90CF91DF911F910F91FF90EF90DF9093
:10320000CF90BF90AF909F908F907F906F905F9086
:103210004F903F902F900895D60153966D907D90DA
:103220008D909C9056971A96ED90FD900D911C9163
:103230001D978B819C819C0140E050E0D401C3012B
:103240008E199F09A00BB10B82179307A407B5072E
:1032500008F4C6C0AB81BC81109709F4E4C02B010F
:10326000C60106969A8389833D01212C52E0352EB2
:103270004FEF842E41E0942E8E209F20E23009F4FF
:1032800098C0D6015B96ED91FC915C97D801C7017F
:1032900029E0B695A795979587952A95D1F7B4809B
:1032A000BA94B82281149104A9F4BB2099F4E114D2
:1032B000F1040105110509F0B9C0D60157962D9109
:1032C0003D914D915C915A9716962D933D934D9358
:1032D0005C931997D60116964D915D916D917C91F5
:1032E00019974250504060407040058404C0440F1C
:1032F000551F661F771F0A94D2F786859785A08988
:10330000B189480F591F6A1F7B1F4B0D511D611D4D
:10331000711D5101A818B9086A147B0408F45301FF
:10332000F601848186FD62C0F0E0AF16F2E0BF06D0
:1033300009F45CC0CB01BA0140E00E94781C8823EC
:1033400009F450CF94012750324FA9014A0D5B1D5B
:103350002417350759F0D201F90181918D934E1749
:103360005F07D9F7421B530B440E551E750100E051
:1033700010E0F60182859385A485B585E80EF91ED7
:103380000A1F1B1FD6011A96ED92FD920D931C93F6
:103390001D976A187B0809F446C0D6011596EC9172
:1033A0004FEF842E41E0942E8E209F20E23009F0D2
:1033B00068CFB801A70139E076956795579547958D
:1033C0003A95D1F7D6015B96ED91FC915C97828D91
:1033D000938DA48DB58D480F591F6A1F7B1F99CF00
:1033E000C3018E199F099C838B8334CF8091FC0588
:1033F0009091FD05A091FE05B091FF054817590772
:103400006A077B0709F496CF8091F90F9091FA0F24
:103410009401850172010E94FC16882309F4E2CE12
:103420004A0C5B1CA3CF4B815C81DECED601169685
:103430004D915D916D917C911997CF0129813A81D0
:103440000E94571D882309F4CDCED6015B96ED91DD
:10345000FC915C973FCFCF93DF93EC019C012A5FF7
:103460003F4F8B8D9C8D41E050E060E070E00E940A
:10347000D11D8823A1F08F89988DA98DBA8D0097D1
:10348000A105B10559F48E819F81A885B9858F8BDF
:10349000988FA98FBA8F8C8180688C8381E0DF91AF
:1034A000CF9108952F923F924F925F926F927F92A9
:1034B0009F92AF92BF92CF92DF92EF92FF920F93C3
:1034C0001F93DF93CF9300D000D0CDB7DEB75C0160
:1034D000F62EE72E5E834D83DC0115968C911597B1
:1034E000813019F181E090E0D50113969C938E9381
:1034F00012971E821D828D819E8126960FB6F894AA
:10350000DEBF0FBECDBFCF91DF911F910F91FF9016
:10351000EF90DF90CF90BF90AF909F907F906F9093
:103520005F904F903F902F90089514968C9181FF5B
:10353000D9CF82FD54C1F5014285538564857585D7
:10354000ED81FE81309709F4C0C08F2D9E2D9C0126
:1035500019012F01D5015B96ED91FC915C97DB0180
:10356000CA0119E0B695A795979587951A95D1F751
:1035700094809A949822AFEF6A2EA1E07A2E64226A
:103580007522992019F56114710401F5D50116967B
:103590004D915D916D917C91199741155105610592
:1035A000710509F0F1C057962D913D914D915C91B7
:1035B0005A97211531054105510509F404C1D5017A
:1035C00016962D933D934D935C93199780E092E06E
:1035D0008619970962018415950508F46C01D501D7
:1035E0001696ED90FD900D911C9119978EEF9FEF1F
:1035F000AFEFBFEFE80EF91E0A1F1B1F058404C0C2
:10360000EE0CFF1C001F111F0A94D2F786859785C8
:10361000A089B189E80EF91E0A1F1B1FE90CF11CD5
:10362000011D111D90E0C91692E0D90609F46EC083
:103630006114710479F4F50122853385448555853B
:1036400083899489A589B689281739074A075B07B2
:1036500008F07AC0C801B70141E00E94781C8823B5
:1036600009F440CFA3014750524F9A012C0D3D1D44
:103670004217530789F0D101FA018D9181932E17DA
:103680003F07D9F7CA01019641E050E0481B590BAA
:10369000240F351F220E331E4C185D08C601A0E012
:1036A000B0E0F5014285538564857585480F591F43
:1036B0006A1F7B1FD5011A964D935D936D937C9382
:1036C0001D974114510409F045CFF5018389948970
:1036D000A589B68984179507A607B70708F0A3C080
:1036E000D50153964D935D936D937C9356971496A5
:1036F0008C911497806814968C9383FFFCCEC5013F
:103700000E948018882309F4EDCEF5CE8091FC0547
:103710009091FD05A091FE05B091FF058E159F05C6
:10372000A007B10721F18091F90F9091FA0FB8012C
:10373000A70191010E949C16882309F4D3CEA0E032
:10374000B2E02A0E3B1EA8CF0E943A1C882309F43F
:10375000C9CEE092FC05F092FD050093FE051093A2
:10376000FF058091FB0F81608093FB0F7BCF8FEF74
:103770009FEFAFEFBFEF8093FC059093FD05A09303
:10378000FE05B093FF05CFCFCF019E012F5F3F4FC6
:103790000E94571D882309F4ACCE29813A814B81C0
:1037A0005C81D5015B96ED91FC915C9787898031B6
:1037B000A9F188EF9FEFAFEFBFE0281739074A075D
:1037C0005B0708F4FCCEC5010E942B1A882309F47C
:1037D00089CED5015B96ED91FC915C97F7CEF50112
:1037E00003891489258936894285538564857585C1
:1037F000401751076207730709F4A2CEC501B9014A
:10380000A8010E94B717882309F46CCED5011A9637
:103810004D915D916D917C911D9792CE88EF9FEFB8
:10382000A0E0B0E0CACF8091F70D9091F80D892B00
:1038300069F04D815E81452B21F4D50114968C9160
:103840005CCFF50184818068848357CFF501848142
:1038500054CFDF93CF930F92CDB7DEB76983BE010C
:103860006F5F7F4F41E050E00E94521A0F90CF915E
:10387000DF9108958091FB0F882311F481E0089572
:103880004091FC055091FD056091FE057091FF058A
:103890008091F90F9091FA0F29EF3DE00E949C165C
:1038A0008823D9F04091FC0F5091FD0F6091FE0FDD
:1038B0007091FF0F411551056105710521F41092BA
:1038C000FB0F81E008958091F90F9091FA0F29EF95
:1038D0003DE00E949C16882311F480E00895109228
:1038E000FC0F1092FD0F1092FE0F1092FF0FE7CF0A
:1038F000DF92EF92FF920F931F937B018C01D42EE6
:103900008091FC059091FD05A091FE05B091FF0509
:103910008E159F05A007B107F9F00E943A1C882375
:1039200039F480E01F910F91FF90EF90DF900895A0
:103930008091F90F9091FA0FB801A70129EF3DE0AE
:103940000E94A717882369F3E092FC05F092FD0519
:103950000093FE051093FF058091FB0F8D29809346
:10396000FB0F81E01F910F91FF90EF90DF90089582
:103970004F925F926F927F928F929F92AF92BF927F
:10398000CF92DF92EF92FF920F931F93CF93DF932B
:10399000EC016A017B0128013901423051056105C2
:1039A000710508F45BC089859A85AB85BC85019655
:1039B000A11DB11D84179507A607B70708F44EC0CF
:1039C0002B893C894D895E89EF89E03109F461C01A
:1039D000C701B60107E096958795779567950A9593
:1039E000D1F74B015C01820E931EA41EB51E80917F
:1039F000FC059091FD05A091FE05B091FF0588168C
:103A00009906AA06BB06E1F5E03109F447C0F601C4
:103A1000EF77F070EE0FFF1FEE0FFF1FE750F24F32
:103A200040825182628273828091FB0F8160809319
:103A3000FB0F8A89823080F08D819E81AF81B885AD
:103A4000880E991EAA1EBB1E8092FC0F9092FD0F3D
:103A5000A092FE0FB092FF0F81E001C080E0DF91E5
:103A6000CF911F910F91FF90EF90DF90CF90BF907B
:103A7000AF909F908F907F906F905F904F90089540
:103A8000C501B40140E00E94781C882339F3EF8916
:103A9000BBCF99278F2D7E2D6D2DA3CFF601F07012
:103AA000EE0FFF1FE750F24F51824082BDCFCF9201
:103AB000DF92EF92FF920F931F93CF93DF93EC016E
:103AC0007A018B01690189859A85AB85BC85019650
:103AD000A11DB11D84179507A607B70708F441C0BB
:103AE0002B893C894D895E89EF89E03109F443C017
:103AF000C801B701F7E09695879577956795FA9590
:103B0000D1F7260F371F481F591F8091FC05909150
:103B1000FD05A091FE05B091FF05281739074A075A
:103B20005B0741F0CA01B90140E00E94781C88237C
:103B3000C1F0EF89E03121F1F701EF77F070EE0F7E
:103B4000FF1FEE0FFF1FE750F24F80819181A2818E
:103B5000B381BF70F60180839183A283B38381E038
:103B600001C080E0DF91CF911F910F91FF90EF9006
:103B7000DF90CF9008959927812F702F6F2DC1CF9F
:103B8000F701F070EE0FFF1FE750F24F8081918137
:103B9000A0E0B0E0F60180839183A283B38381E04B
:103BA000E1CF2F923F924F925F926F927F928F92CE
:103BB0009F92AF92BF92CF92DF92EF92FF920F93BC
:103BC0001F93DF93CF93CDB7DEB767970FB6F89407
:103BD000DEBF0FBECDBF1C014A875B876C877D8728
:103BE0003F872E87D9010D911D912D913C91011593
:103BF00011052105310509F4D3C0D901C801019689
:103C0000A11DB11D8C8B9D8BAE8BBF8B1986F101D5
:103C100081859285A385B4859C01AD012F5F3F4FBF
:103C20004F4F5F4F2D833E834F8358870097A105E9
:103C3000B10509F49BC0CC88DD88EE88FF88882414
:103C4000992454018E010F5F1F4F1CC0A7019601DC
:103C50002F5F3F4F4F4F5F4F2C8B3D8B4E8B5F8BBA
:103C60000894811C911CA11CB11CF10181859285D5
:103C7000A385B48588169906AA06BB0608F076C007
:103C800069017A018D819E81AF81B8858C159D0572
:103C9000AE05BF0570F492E0492E512C612C712CB9
:103CA0004C8A5D8A6E8A7F8A82E0C82ED12CE12CF4
:103CB000F12CC101B701A60198010E94571D88236C
:103CC00009F454C089819A81AB81BC810097A10518
:103CD000B10509F0BBCFA70196012F5F3F4F4F4FB2
:103CE0005F4FDA01C9014C885D886E887F8884192E
:103CF0009509A609B7094A845B846C847D84841580
:103D00009505A605B70509F0ABCFC101A601B7011E
:103D10000FEF1FEF2FEF3FE00E94B81C882331F117
:103D20004C885D886E887F884C145D046E047F0427
:103D300068F04DC02C893D894E895F892815390569
:103D40004A055B0508F043C075016401460157014F
:103D5000089481089108A108B108C101B501A40126
:103D6000970186010E94B81C882321F780E067969E
:103D70000FB6F894DEBF0FBECDBFCF91DF911F917C
:103D80000F91FF90EF90DF90CF90BF90AF909F90FA
:103D90008F907F906F905F904F903F902F900895FD
:103DA000DC014D905D906D907C904C8A5D8A6E8AAE
:103DB0007F8A19862A853B854C855D8521303105B2
:103DC0004105510509F023CF31E0398720CFAE8579
:103DD000BF854D915D916D917C91411551056105B6
:103DE0007105F1F44C885D886E887F88AE85BF854B
:103DF0004D925D926D927C921397B985BB2371F0C1
:103E00002C893D894E895F892F5F3F4F4F4F5F4F10
:103E1000D1012D933D934D935C93139781E0A7CFF0
:103E2000C1010C891D892E893F890E94B81C8823F5
:103E3000C9F69CCFFC0114AE13AE1092F51012AE71
:103E40001092F01080E090E19093F2108093F110C6
:103E500088E790E19093F4108093F31015A614A6D0
:103E600015821482138212821182108212A611A668
:103E700010A613A61782168280E090E0A0E0B0E0C2
:103E800084A395A3A6A3B7A380A391A3A2A3B3A33E
:103E9000848F958FA68FB78F808F918FA28FB38FCE
:103EA000848B958BA68BB78B808B918BA28BB38BDE
:103EB00084879587A687B78780879187A287B387EE
:103EC0000895EF92FF920F931F938C017B010E9444
:103ED0001A1FF801F4AEE3AE1F910F91FF90EF901F
:103EE0000895FC0183AD94AD0E94C23C08956F9289
:103EF0007F928F929F92AF92BF92CF92DF92EF927A
:103F0000FF920F931F93CF93DF933C01EB01DB01F3
:103F10000D900020E9F71197A61BB70BFB01EA0FE4
:103F2000FB1F349780818A3209F4F7C0CE0161ED1E
:103F300074E00E944803009709F405C1CE016CE2C9
:103F400070E00E9427036C010894C11CD11CC601BB
:103F50000E94FC024B015C010E94B8417B018C0174
:103F6000C80120E137E240E050E00E94E044F30164
:103F70002083B701C80120E137E240E050E00E9411
:103F8000E04424E630E040E050E00E94E044F301E9
:103F90002183B701C80124E630E040E050E00E94F0
:103FA000E044F3016283C501B40120E030E040E861
:103FB0005FE30E9428429B01AC01CA01B90120E0E5
:103FC00030E04AE754E40E94F4420E94B841F30111
:103FD00077836683C6016CE270E00E9427038C0140
:103FE0000F5F1F4FC8010E94FC02F30160877187B9
:103FF00082879387C8016CE270E00E942703FC016E
:10400000019621812E34A9F0233599F02C3209F440
:1040100081C080E0DF91CF911F910F91FF90EF90D1
:10402000DF90CF90BF90AF909F908F907F906F90D8
:104030000895F30120A76CE270E00E9427038C0131
:104040000F5F1F4FC8010E94FC02F3016487758750
:1040500086879787C8016CE270E00E942703FC0105
:1040600001962181273539F0253429F02C3289F643
:10407000F30111A602C0F30121A76CE270E00E94D7
:1040800027038C010F5F1F4FC8010E940003F3013B
:1040900084A7C8016CE270E00E9427038C010F5FC7
:1040A0001F4FC8010E940003F30185A7C8016CE2FD
:1040B00070E00E9427038C010F5F1F4FC8010E9410
:1040C000FC02F30164A375A386A397A3C8016CE265
:1040D00070E00E9427038C010F5F1F4FC8010E94F0
:1040E000FC02F301648B758B868B978BC8016CE2A5
:1040F00070E00E94270301966CE270E00E942703A3
:1041000001960E94FC02F301608B718B828B938B72
:1041100081E080CFF30110A68ECFAD014450504016
:104120004230510508F402CF21E02F5F822F90E04A
:1041300084179507D0F3CE0161ED74E00E94480327
:10414000009709F0FBCECE0168ED74E00E944803B1
:10415000009709F45ECFCE016CE270E00E94270365
:104160006C010894C11CD11CC6010E94FC024B01C9
:104170005C010E94B8417B018C01C80120E137E25B
:1041800040E050E00E94E044F3012083B701C80101
:1041900020E137E240E050E00E94E04424E630E0D5
:1041A00040E050E00E94E044F3012183B701C801E0
:1041B00024E630E040E050E00E94E044F3016283F6
:1041C000C501B40120E030E040E85FE30E942842EE
:1041D0009B01AC01CA01B90120E030E04AE754E498
:1041E0000E94F4420E94B841F30177836683C601BE
:1041F0006CE270E00E942703FC019C012F5F3F4F9F
:104200008181813409F49AC0863509F002CFF30127
:1042100013A6C9016CE270E00E9427038C010F5FB6
:104220001F4FC8010E94FC02F301608771878287DB
:104230009387C8016CE270E00E942703FC0101969D
:1042400021812E3409F47EC0233509F47BC02C3241
:1042500009F0DFCEF30110A66CE270E00E942703A4
:104260008C010F5F1F4FC8010E94FC02F30164879D
:10427000758786879787C8016CE270E00E942703E4
:10428000FC0101962181273509F45FC0253409F42A
:104290005CC02C3209F0BDCEF30111A66CE270E0D7
:1042A0000E9427038C010F5F1F4FC8010E94FC0270
:1042B000F301608F718F828F938FC8016CE270E081
:1042C0000E9427038C010F5F1F4FC8010E94FC0250
:1042D000F301648F758F868F978FC8016CE270E051
:1042E0000E94270301960E94FC020E94B8417B01B4
:1042F0008C01C80120E137E240E050E00E94E04438
:10430000F3012583B701C80120E137E240E050E026
:104310000E94E04424E630E040E050E00E94E044A7
:10432000F3012483B701C80124E630E040E050E007
:104330000E94E044F301638381E06CCE81E0F301ED
:1043400083A767CFF30120A787CFF30121A7A6CFCB
:10435000FC018FEF818B8787808B828B0895AF92D2
:10436000BF92CF92DF92FF920F931F93CF93DF9371
:104370008C01C62EDD24FF24C7E0D0E081E0A82E0A
:10438000B12C1DC0F801808961E00E94E93EF8016E
:10439000818961E00E94E93EF80187850E941F3F04
:1043A000892B41F0C5010C2E02C0880F991F0A9479
:1043B000E2F7F82A2197FFEFCF3FDF07A1F0F801DE
:1043C000818960E00E94E93EC6010C2E02C09595ED
:1043D00087950A94E2F780FDD5CFF801808960E0E7
:1043E0000E94E93ED4CF8F2DDF91CF911F910F9185
:1043F000FF90DF90CF90BF90AF9008950F931F93E1
:10440000CF93DF93EC01162F042F8A898F3FC9F0D9
:10441000898961E00E94E93E8A8960E00E94E93E64
:10442000CE01612F0E94AF21CE01602F0E94AF21EB
:104430008A8961E00E94E93EDF91CF911F910F913F
:10444000089585E791E16C850E94372F85E791E11A
:10445000612F0E94BD2F85E791E1602F0E94BD2F43
:1044600085E791E10E940A30DF91CF911F910F9172
:1044700008951F93CF93DF93EC01162F8A898F3F06
:10448000D9F0898961E00E94E93E8A8960E00E9452
:10449000E93E1068CE01612F0E94AF21CE016FEF7F
:1044A0000E94AF21182F8A8961E00E94E93E812F86
:1044B000DF91CF911F91089585E791E16C850E946E
:1044C000372F85E791E1612F0E94BD2F85E791E1AC
:1044D0000E940A3085E791E16C8541E00E941B3023
:1044E00085E791E10E944A2F182F85E791E10E940C
:1044F0000A30812FDF91CF911F9108956F927F92A3
:104500008F929F92AF92BF92CF92DF92EF92FF92E3
:104510000F931F93CF93DF93EC018A898F3F09F4A8
:10452000A9C0898961E00E94E93E8A8960E00E9411
:10453000E93ECE0168EE0E94AF216AE070E080E0C3
:1045400090E00E94653DCE016FEF0E94AF21082FE1
:10455000CE016FEF0E94AF21182FCE016FEF0E94A6
:10456000AF21C82ECE016FEF0E94AF21D82ECE0111
:104570006FEF0E94AF21882ECE016FEF0E94AF2116
:10458000982E8A8961E00E94E93E712F60E0202F19
:1045900030E0622B732B882777FD8095982F0E943F
:1045A000E6417B018C01688379838A839B837D2D1F
:1045B00060E02C2D30E0622B732B882777FD8095EF
:1045C000982F0E94E6415B016C016C837D838E8392
:1045D0009F83792D60E0282D30E0622B732B882794
:1045E00077FD8095982F0E94E6413B014C0168873A
:1045F00079878A879B878D859E858130910509F40F
:1046000097C08230910509F46EC0892B21F5C8014D
:10461000B70129E23CE54FE05CE30E94F442688385
:1046200079838A839B83C601B50129E23CE54FE08B
:104630005CE30E94F4426C837D838E839F83C4017C
:10464000B30129E23CE54FE05CE30E94F442688755
:1046500079878A879B87DF91CF911F910F91FF9078
:10466000EF90DF90CF90BF90AF909F908F907F9012
:104670006F90089585E791E16C850E94372F85E75B
:1046800091E168EA0E94BD2F85E791E10E940A301E
:1046900085E791E16C8546E00E941B3085E791E15A
:1046A0000E94412F0697D4F385E791E10E944A2F9B
:1046B000082F85E791E10E944A2F182F85E791E1A5
:1046C0000E944A2FC82E85E791E10E944A2FD82EDA
:1046D00085E791E10E944A2F882E85E791E10E94AB
:1046E0004A2F982E52CFC801B70129E23CE54FE886
:1046F0005DE30E94F442688379838A839B83C601C9
:10470000B50129E23CE54FE85DE30E94F4426C8389
:104710007D838E839F83C401B30129E23CE54FE88A
:104720005DE30E94F442688779878A879B8793CFED
:10473000C801B70129E23CE54FE85CE30E94F4427E
:10474000688379838A839B83C601B50129E23CE5AE
:104750004FE85CE30E94F4426C837D838E839F83E9
:10476000C401B30129E23CE54FE85CE30E94F44256
:10477000688779878A879B876ECFFF920F931F93F5
:10478000CF93DF93EC018B01F42E8A898F3F21F1C7
:1047900061E00E94273E898961E00E94273E888966
:1047A00061E00E94273E8F8560E00E94273E8A8953
:1047B00061E00E94E93EFC861E870D87CE016FE016
:1047C00070E00E943922843D61F080E0DF91CF915A
:1047D0001F910F91FF90089585E791E10E941F308E
:1047E000EACFCE0160E270E04FE00E94FE218D85AD
:1047F0009E8581309105A9F08230910551F0892B79
:1048000071F4CE0163E270E040E00E94FE2181E09D
:10481000DDCFCE0163E270E040E20E94FE2181E044
:10482000D5CFCE0163E270E040E10E94FE2181E03D
:10483000CDCFFC0189E296E091838083428353834C
:10484000648375830895EF92FF920F931F937C0109
:104850008B0188E2FB0111928A95E9F7CB016FED9C
:1048600074E04BE050E00E943903F801138681E0C8
:1048700090E0A0E0B0E084879587A687B787F7012E
:1048800082819381A481B581F801808B918BA28B69
:10489000B38B86E090E0A0E0B0E0848B958BA68B94
:1048A000B78B14A215A216A217A280E090E0A6E989
:1048B000B3E4808F918FA28FB38F80E090E8A9E856
:1048C000B4E4848F958FA68FB78F8AE097EDA3E22B
:1048D000BCE380A391A3A2A3B3A31F910F91FF9068
:1048E000EF9008958F929F92AF92BF92CF92DF92F6
:1048F000EF92FF920F931F93CB01BA01A901980188
:104900000E944B4121ED39EC42E45EE30E945743A3
:104910009B01AC01CA01B90120E030E040E85FE34F
:104920000E94E2404B015C01C701B60123E333E979
:1049300048E853E40E94E3409B01AC01C501B40187
:104940000E94F44224EF3DEF44ED5BE30E944B41B3
:104950001F910F91FF90EF90DF90CF90BF90AF909D
:104960009F908F900895EF92FF920F931F93182FAF
:10497000062F85E7E82E81E1F82EC70167E70E9440
:10498000372FC701612F0E94BD2FC701602F0E94E2
:10499000BD2FC7010E940A301F910F91FF90EF9029
:1049A0000895CF92DF92FF920F931F93F82E6B0121
:1049B00005E711E1C80167E70E94372FC8016F2D95
:1049C0000E94BD2FC8010E940A30C80167E742E07B
:1049D0000E941B30C8010E944A2FF82EC8010E9475
:1049E0004A2F3F2D20E0282B392BF60131832083DD
:1049F000C8010E940A301F910F91FF90DF90CF9065
:104A000008950F931F93DF93CF930F920F92CDB71B
:104A1000DEB78C0184EF6EE20E94B32465E070E0A3
:104A200080E090E00E94653D86EFBE016F5F7F4FA2
:104A30000E94D12489819A81A0E0B0E0F8018083AE
:104A40009183A283B3830F900F90CF91DF911F9139
:104A50000F9108958F929F92AF92BF92CF92DF9263
:104A6000EF92FF920F931F93DF93CF9300D00F929B
:104A7000CDB7DEB74B01CE0101960E9401252091F2
:104A800000113091011140E050E069817A818B8101
:104A90009C81621B730B840B950B2091FE1030914F
:104AA000FF1040E050E00E94AE440E94E64120E04A
:104AB00030E040E058E30E94F4420E94B3417B01A1
:104AC0008C016091081170910911882777FD8095FC
:104AD000982F0E94E64120E030E040E055E40E943B
:104AE000F4425B016C0160910A1170910B118827EF
:104AF00077FD8095982F6E0D7F1D801F911F0E945E
:104B0000E6419B01AC01C601B5010E944B410E94E8
:104B1000B34128E030E040E050E0E20EF31E041F15
:104B2000151F6E0D7F1D801F911F0E94E64120E022
:104B300030E040E85DE30E94F44220E030E040E2F3
:104B400051E40E944B41F40160837183828393831B
:104B50000F900F900F900F90CF91DF911F910F91B9
:104B6000FF90EF90DF90CF90BF90AF909F908F908D
:104B70000895CF92DF92EF92FF921F93182F6B014F
:104B800095E7E92E91E1F92EC70167E70E94372FDB
:104B9000C701612F0E94BD2FC7010E940A30C701C3
:104BA00067E741E00E941B30C7010E944A2FF601CF
:104BB0008083C7010E940A301F91FF90EF90DF9021
:104BC000CF9008952F923F924F925F926F927F9273
:104BD0008F929F92AF92BF92CF92DF92EF92FF920D
:104BE0000F931F93DF93CF93CDB7DEB72F970FB6F9
:104BF000F894DEBF0FBECDBF7F876E871C821D82FB
:104C00001E821F82CE0104960E94012560910C1124
:104C10006295660F660F607C6C5C84EF0E94B32423
:104C200080910C11813009F4D9C1813008F4C2C1DE
:104C3000823009F4DAC16AE170E080E090E00E941D
:104C4000653D86EFBE016E5F7F4F0E94D1246A8072
:104C50007B8088249924982C872C762C662488EFD6
:104C6000BE016F5F7F4F0E94B9258981680E711C5C
:104C7000811C911C80910C11282F30E039872887E6
:104C8000209100113091011140E050E06C817D8154
:104C90008E819F81621B730B840B950B2091FE10FC
:104CA0003091FF1040E050E00E94AE440E94E64187
:104CB00020E030E040E058E30E94F4420E94B3411B
:104CC0007B018C016091081170910911882777FD93
:104CD0008095982F0E94E64120E030E040E055E4C6
:104CE0000E94F4420E94B34120910A1130910B11AD
:104CF000442737FD4095542F2E0D3F1D401F511F57
:104D00000E94024559016A0180E690EFAFEFBFEFC4
:104D1000E80EF91E0A1F1B1FAE0CBF1CC01ED11EC1
:104D2000C601B501A60195010E94AE441B012C01EC
:104D3000ACE05594479437942794AA95D1F72091E5
:104D4000FA103091FB10442737FD4095542FC601CF
:104D5000B5010E94AE447B018C01FDE015950795DD
:104D6000F794E794FA95D1F782E090E0A0E0B0E004
:104D7000E80EF91E0A1F1B1F20910211309103112A
:104D8000442737FD4095542FC201B1010E94AE4423
:104D9000BC01992777FD9095892FE60EF71E081F15
:104DA000191F15950795F794E79415950795F794AE
:104DB000E79480E090E8A0E0B0E0E80EF91E0A1F5A
:104DC0001B1F2091FC103091FD1040E050E0C80105
:104DD000B7010E94AE44DC01CB014FE0B695A79528
:104DE000979587954A95D1F78A879B87AC87BD872A
:104DF00088E090E0A885B9858A1B9B0B04C0959438
:104E00008794779467948A95D2F72091F81030911F
:104E1000F910442737FD4095542FC601B5010E9473
:104E2000AE447B018C013BE015950795F794E79420
:104E30003A95D1F78091F6109091F710AA2797FD37
:104E4000A095BA2F880F991FAA1FBB1F880F991F03
:104E5000AA1FBB1FE80EF91E0A1F1B1F2091041179
:104E600030910511442737FD4095542FC201B101FF
:104E70000E94AE44ABE09595879577956795AA9586
:104E8000D1F7E60EF71E081F191F088404C0EE0CA8
:104E9000FF1C001F111F0A94D2F782E090E0A0E0EF
:104EA000B0E0E80EF91E0A1F1B1F15950795F79431
:104EB000E79415950795F794E7946E187F08800A94
:104EC000910A20E533EC40E050E0088404C0559599
:104ED0004795379527950A94D2F7C401B3010E94EC
:104EE000AE4497FD6EC0660F771F881F991F2A85F5
:104EF0003B854C855D850E94E044C901DA015C0177
:104F00006D015527D7FC5A954D2D3C2D2B2DCA01EF
:104F1000B9010E94AE442EED3BE040E050E00E941B
:104F2000AE447B018C01C601B50123E433EE4FEFA3
:104F30005FEF0E94AE44BC01992777FD9095892FC1
:104F40006153714F8F4F9F4F78011127F7FC1095D8
:104F5000012F6E0D7F1D801F911F24E09595879571
:104F6000779567952A95D1F76A0D7B1D8C1D9D1D40
:104F70000E94E641AE85BF856D937D938D939C9392
:104F800013972F960FB6F894DEBF0FBECDBFCF910B
:104F9000DF911F910F91FF90EF90DF90CF90BF9026
:104FA000AF909F908F907F906F905F904F903F90C9
:104FB0002F90089565E070E080E090E00E94653DEC
:104FC00040CE2A853B854C855D850E94E044590191
:104FD0006A01AA0CBB1CCC1CDD1C93CF68E070E0FE
:104FE00080E090E00E94653D2CCE6EE070E080E0B5
:104FF00090E00E94653D25CE0F931F93DF93CF93E2
:1050000000D00F92CDB7DEB7FC018B0184E2DB014B
:105010001D928A95E9F724E230E040E050E0DB01A0
:105020002D933D934D935C9313972281338144815B
:10503000558114962D933D934D935C93179726E0DD
:1050400030E040E050E018962D933D934D935C93F3
:105050001B9750961D921D921D921C925397CF0143
:10506000BE016F5F7F4F0E94E22569817A818B814B
:105070009C8120E030E048EC52E40E944B41F80172
:10508000648B758B868B978B0F900F900F900F9082
:10509000CF91DF911F910F9108950F931F93DF938D
:1050A000CF9300D0CDB7DEB78B0185E791E10E94A9
:1050B0001F3004301105A4F417FD12C080EDBE01AD
:1050C0006F5F7F4F0E94B9258981853561F080E04F
:1050D0000F900F900F90CF91DF911F910F91089536
:1050E00003E010E0EBCF00930C118E010E5F1F4F19
:1050F0008AEAB8010E94D1248A819B819093F7109B
:105100008093F6108CEAB8010E94D1248A819B8199
:105110009093F9108093F8108EEAB8010E94D12480
:105120008A819B819093FB108093FA1080EB6CEF47
:1051300070E10E94D12482EB6EEF70E10E94D124D5
:1051400084EB60E071E10E94D12486EBB8010E94FB
:10515000D1248A819B81909303118093021188EB63
:10516000B8010E94D1248A819B819093051180937C
:1051700004118AEBB8010E94D1248A819B8190930B
:105180000711809306118CEBB8010E94D1248A810B
:105190009B8190930911809308118EEBB8010E94B6
:1051A000D1248A819B8190930B1180930A1181E015
:1051B0000F900F900F90CF91DF911F910F91089555
:1051C000FC0189E396E09183808346875787608B53
:1051D000718B0895FC0181E396E091838083448B79
:1051E000558B668B778B0895EF92FF920F931F93E9
:1051F0007C018B0188E2FB0111928A95E9F7CB01D2
:1052000066EE74E04BE050E00E943903F80113862B
:1052100081E090E0A0E0B0E084879587A687B7871B
:10522000F70184899589A689B789F801808B918BCC
:10523000A28BB38B82E090E0A0E0B0E0848B958BF2
:10524000A68BB78B14A215A216A217A280E090E03D
:10525000A0E0B0E0808F918FA28FB38F848F958F65
:10526000A68FB78F80A391A3A2A3B3A31F910F9181
:10527000FF90EF900895EF92FF920F931F937C01A0
:105280008B0188E2FB0111928A95E9F7CB0166EE6A
:1052900074E04BE050E00E943903F801138621E0EE
:1052A00030E040E050E02487358746875787F70194
:1052B00086859785A089B189F801808B918BA28B17
:1052C000B38B248B358B468B578B14A215A216A259
:1052D00017A280E090E0A0E0B0E0808F918FA28FD5
:1052E000B38F848F958FA68FB78F80A391A3A2A32E
:1052F000B3A31F910F91FF90EF9008959F92AF92EB
:10530000BF92CF92DF92EF92FF920F931F93CF93B2
:10531000DF93EC0185E791E16EE10E94372F85E78D
:1053200091E163E00E94BD2F85E791E10E940A3080
:1053300085E791E16EE146E00E941B3085E791E14F
:105340000E94412F0697D4F385E791E10E944A2FEE
:10535000A82E85E791E10E944A2FE82E85E791E18A
:105360000E944A2F982E85E791E10E944A2FC82E6D
:1053700085E791E10E944A2FB82E85E791E10E94CE
:105380004A2F082F7A2D60E0FF246E297F29882775
:1053900077FD8095982F0E94E6416C837D838E83F4
:1053A0009F837B2D60E010E0602B712B882777FDB9
:1053B0008095982F0E94E641688779878A879B8726
:1053C000792D60E0DD246C297D29882777FD809583
:1053D000982F0E94E6416C877D878E879F8780E0AB
:1053E00090E0A0E0B0E0888B998BAA8BBB8BDF911B
:1053F000CF911F910F91FF90EF90DF90CF90BF90D2
:10540000AF909F900895AF92BF92CF92DF92EF92AC
:10541000FF920F931F935C018B0184E2FB011192B9
:105420008A95E9F7C5010E947E2984E290E0A0E018
:10543000B0E0F80180839183A283B383F50184896E
:105440009589A689B789F80184839583A683B78354
:1054500082E090E0A0E0B0E080879187A287B387E8
:10546000108A118A128A138AC0900006D090010611
:10547000E0900206F0900306F50164817581868153
:105480009781A70196010E944B4120E030E048EC53
:1054900052E40E94F442F801648B758B868B978BE3
:1054A000F5016085718582859385A70196010E942B
:1054B0004B4120E030E048EC52E40E94F442F80115
:1054C000608F718F828F938FF501648575858685D6
:1054D000978520910406309105064091060650916B
:1054E00007060E944B4120E030E048EC52E40E9465
:1054F000F442F801648F758F868F978F1F910F91FB
:10550000FF90EF90DF90CF90BF90AF9008959F9263
:10551000AF92BF92CF92DF92EF92FF920F931F93C1
:10552000CF93DF93EC0185E791E169E10E94372F8A
:1055300085E791E168EA0E94BD2F85E791E10E942D
:105540000A3085E791E169E146E00E941B3085E77A
:1055500091E10E94412F0697D4F385E791E10E94E3
:105560004A2F082F85E791E10E944A2FB82E85E740
:1055700091E10E944A2FE82E85E791E10E944A2F8F
:10558000A82E85E791E10E944A2FC82E85E791E178
:105590000E944A2F982E7B2D60E010E0602B712B2B
:1055A00075956795759567957595679575956795E3
:1055B000882777FD8095982F0E94E6416A837B8338
:1055C0008C839D837A2D60E0FF246E297F29759559
:1055D000679575956795759567957595679588270E
:1055E00077FD8095982F0E94E6416E837F838887A0
:1055F0009987792D60E0DD246C297D297595679563
:10560000759567957595679575956795882777FD65
:105610008095982F0E94E6416A877B878C879D87BB
:10562000DF91CF911F910F91FF90EF90DF90CF907E
:10563000BF90AF909F900895EF92FF920F931F93AA
:105640007C018B0184E2FB0111928A95E9F7C70185
:105650000E94872A84E290E0A0E0B0E0F801808315
:105660009183A283B383F70186859785A089B18949
:10567000F80184839583A683B78381E090E0A0E05E
:10568000B0E080879187A287B387108A118A128A37
:10569000138AF70162817381848195812FE632E15B
:1056A00043E85AE30E94F4422AE038EE4CE151E428
:1056B0000E94F442F801648B758B868B978BF701FF
:1056C00066817781808591852FE632E143E85AE350
:1056D0000E94F4422AE038EE4CE151E40E94F44288
:1056E000F801608F718F828F938FF70162857385C8
:1056F000848595852FE632E143E85AE30E94F4421F
:105700002AE038EE4CE151E40E94F442F801648F43
:10571000758F868F978F1F910F91FF90EF9008954F
:10572000EF92FF920F931F93F42EE22E05E711E103
:10573000C8010E94372FC8016F2D0E94BD2FC801DC
:105740006E2D0E94BD2FC8010E940A301F910F913B
:10575000FF90EF9008950F931F93CF93DF938C01E9
:10576000EB016EE141E02C2F0E94902BF801D383D6
:10577000C283C038D10509F4C5C0C138D10544F190
:10578000C03CD10509F484C0C03ED10509F463C012
:10579000C03AD105C1F480E090E0A8ECB3E4809376
:1057A000000690930106A0930206B093030680E0E2
:1057B00090E0AFE7B3E48093040690930506A093CE
:1057C0000606B0930706DF91CF911F910F910895C0
:1057D000C034D10509F479C0C036D105F9F0A097DD
:1057E00091F780E090E8A9E8B4E4809300069093F4
:1057F0000106A0930206B093030680E090E0A5E7BF
:10580000B4E48093040690930506A0930606B09333
:105810000706DF91CF911F910F91089580E090E8E6
:10582000A7E2B4E48093000690930106A0930206D9
:10583000B093030680E090E0A6E1B4E48093040610
:1058400090930506A0930606B0930706DF91CF91CB
:105850001F910F91089580E090E0A6E6B3E4809355
:10586000000690930106A0930206B093030680E021
:1058700090E0ADE4B3E48093040690930506A09312
:105880000606B0930706DF91CF911F910F910895FF
:1058900080E090E0A5EAB3E48093000690930106CF
:1058A000A0930206B093030680E090E8A3E9B3E476
:1058B0008093040690930506A0930606B09307060E
:1058C000DF91CF911F910F91089580E090ECA5E5B5
:1058D000B4E48093000690930106A0930206B0936F
:1058E000030680E090E0AEE3B4E480930406909376
:1058F0000506A0930606B0930706DF91CF911F918E
:105900000F91089580E090E0A1EEB3E4809300064B
:1059100090930106A0930206B093030680E090E006
:10592000A8ECB3E48093040690930506A0930606C2
:10593000B0930706DF91CF911F910F9108950F93B8
:105940001F938C0185E791E10E941F30C8016EE131
:1059500042E020E00E94902BC80160E270E00E94CB
:10596000AB2B81E01F910F910895EF92FF920F935F
:105970001F93F42EE22E05E711E1C8010E94372F94
:10598000C8016F2D0E94BD2FC8016E2D0E94BD2F32
:10599000C8010E940A301F910F91FF90EF90089567
:1059A0000F931F938C0185E791E10E941F30C8017E
:1059B00069E140E227E20E94B52C81E01F910F913E
:1059C0000895E0910806F09109063097B9F081E258
:1059D000EF3FF807B0F48081853599F4319620E0E7
:1059E00030E004C08081853539F431962F5F3F4F18
:1059F00081E2EF3FF807B0F3C9010895E8E2F5E16D
:105A0000E6CF20E030E0F8CFFC0180966E0F7F1FDC
:105A10008617970790F480A1853579F4B19620E038
:105A200030E004C08081853531F431962F5F3F4FDF
:105A3000E617F707B8F3C901089520E030E0FBCF7F
:105A40000895DF93CF930F920F92CDB7DEB7909367
:105A50000E1180930D11F8940E94322F0E94B42DE4
:105A6000209108063091090621153105F9F03A8395
:105A70002983CE0143972817390768F4F901319635
:105A8000CE01429725E522933196FA83E983319638
:105A9000E817F907C1F77894E0910D11F0910E1114
:105AA000309709F019950E946307FDCF28E235E190
:105AB000DECFE0912215F09123158DEE94E09487CE
:105AC0008387FFCFCF93DF93E0912215F0912315C9
:105AD0008785882311F08150878780899189019675
